{
  "contractName": "StoreContract",
  "abi": [
    {
      "constant": true,
      "inputs": [
        {
          "name": "",
          "type": "address"
        },
        {
          "name": "",
          "type": "address"
        }
      ],
      "name": "extraAddrAddrInt1",
      "outputs": [
        {
          "name": "",
          "type": "uint256"
        }
      ],
      "payable": false,
      "stateMutability": "view",
      "type": "function"
    },
    {
      "constant": true,
      "inputs": [
        {
          "name": "",
          "type": "address"
        },
        {
          "name": "",
          "type": "address"
        }
      ],
      "name": "extraAddrAddrInt3",
      "outputs": [
        {
          "name": "",
          "type": "uint256"
        }
      ],
      "payable": false,
      "stateMutability": "view",
      "type": "function"
    },
    {
      "constant": true,
      "inputs": [
        {
          "name": "",
          "type": "address"
        }
      ],
      "name": "extraAddrIntMap3",
      "outputs": [
        {
          "name": "",
          "type": "uint256"
        }
      ],
      "payable": false,
      "stateMutability": "view",
      "type": "function"
    },
    {
      "constant": true,
      "inputs": [],
      "name": "extraInt4",
      "outputs": [
        {
          "name": "",
          "type": "uint256"
        }
      ],
      "payable": false,
      "stateMutability": "view",
      "type": "function"
    },
    {
      "constant": true,
      "inputs": [
        {
          "name": "",
          "type": "address"
        },
        {
          "name": "",
          "type": "uint256"
        }
      ],
      "name": "unstakingMap",
      "outputs": [
        {
          "name": "user",
          "type": "address"
        },
        {
          "name": "idx",
          "type": "uint256"
        }
      ],
      "payable": false,
      "stateMutability": "view",
      "type": "function"
    },
    {
      "constant": true,
      "inputs": [],
      "name": "extraInt3",
      "outputs": [
        {
          "name": "",
          "type": "uint256"
        }
      ],
      "payable": false,
      "stateMutability": "view",
      "type": "function"
    },
    {
      "constant": true,
      "inputs": [
        {
          "name": "",
          "type": "address"
        },
        {
          "name": "",
          "type": "address"
        }
      ],
      "name": "extraAddrAddrInt4",
      "outputs": [
        {
          "name": "",
          "type": "uint256"
        }
      ],
      "payable": false,
      "stateMutability": "view",
      "type": "function"
    },
    {
      "constant": true,
      "inputs": [
        {
          "name": "",
          "type": "address"
        }
      ],
      "name": "historyCount",
      "outputs": [
        {
          "name": "",
          "type": "uint256"
        }
      ],
      "payable": false,
      "stateMutability": "view",
      "type": "function"
    },
    {
      "constant": true,
      "inputs": [
        {
          "name": "",
          "type": "uint256"
        }
      ],
      "name": "usedUserList",
      "outputs": [
        {
          "name": "",
          "type": "address"
        }
      ],
      "payable": false,
      "stateMutability": "view",
      "type": "function"
    },
    {
      "constant": true,
      "inputs": [],
      "name": "extraAddr1",
      "outputs": [
        {
          "name": "",
          "type": "address"
        }
      ],
      "payable": false,
      "stateMutability": "view",
      "type": "function"
    },
    {
      "constant": true,
      "inputs": [],
      "name": "totalPending",
      "outputs": [
        {
          "name": "",
          "type": "uint256"
        }
      ],
      "payable": false,
      "stateMutability": "view",
      "type": "function"
    },
    {
      "constant": true,
      "inputs": [
        {
          "name": "",
          "type": "address"
        }
      ],
      "name": "usedUser",
      "outputs": [
        {
          "name": "",
          "type": "bool"
        }
      ],
      "payable": false,
      "stateMutability": "view",
      "type": "function"
    },
    {
      "constant": true,
      "inputs": [
        {
          "name": "",
          "type": "address"
        }
      ],
      "name": "lastUid",
      "outputs": [
        {
          "name": "",
          "type": "uint256"
        }
      ],
      "payable": false,
      "stateMutability": "view",
      "type": "function"
    },
    {
      "constant": true,
      "inputs": [],
      "name": "version",
      "outputs": [
        {
          "name": "",
          "type": "string"
        }
      ],
      "payable": false,
      "stateMutability": "view",
      "type": "function"
    },
    {
      "constant": true,
      "inputs": [
        {
          "name": "",
          "type": "address"
        }
      ],
      "name": "pending",
      "outputs": [
        {
          "name": "",
          "type": "uint256"
        }
      ],
      "payable": false,
      "stateMutability": "view",
      "type": "function"
    },
    {
      "constant": true,
      "inputs": [
        {
          "name": "",
          "type": "address"
        }
      ],
      "name": "extraAddrIntMap2",
      "outputs": [
        {
          "name": "",
          "type": "uint256"
        }
      ],
      "payable": false,
      "stateMutability": "view",
      "type": "function"
    },
    {
      "constant": true,
      "inputs": [],
      "name": "extraAddr2",
      "outputs": [
        {
          "name": "",
          "type": "address"
        }
      ],
      "payable": false,
      "stateMutability": "view",
      "type": "function"
    },
    {
      "constant": true,
      "inputs": [
        {
          "name": "",
          "type": "address"
        },
        {
          "name": "",
          "type": "uint256"
        }
      ],
      "name": "history",
      "outputs": [
        {
          "name": "action",
          "type": "uint8"
        },
        {
          "name": "cn",
          "type": "address"
        },
        {
          "name": "time",
          "type": "uint256"
        },
        {
          "name": "amount",
          "type": "uint256"
        },
        {
          "name": "state",
          "type": "uint8"
        },
        {
          "name": "due",
          "type": "uint256"
        }
      ],
      "payable": false,
      "stateMutability": "view",
      "type": "function"
    },
    {
      "constant": true,
      "inputs": [],
      "name": "extraAddr3",
      "outputs": [
        {
          "name": "",
          "type": "address"
        }
      ],
      "payable": false,
      "stateMutability": "view",
      "type": "function"
    },
    {
      "constant": true,
      "inputs": [],
      "name": "extraInt2",
      "outputs": [
        {
          "name": "",
          "type": "uint256"
        }
      ],
      "payable": false,
      "stateMutability": "view",
      "type": "function"
    },
    {
      "constant": true,
      "inputs": [
        {
          "name": "",
          "type": "address"
        },
        {
          "name": "",
          "type": "address"
        }
      ],
      "name": "extraAddrAddrInt2",
      "outputs": [
        {
          "name": "",
          "type": "uint256"
        }
      ],
      "payable": false,
      "stateMutability": "view",
      "type": "function"
    },
    {
      "constant": true,
      "inputs": [],
      "name": "_owner",
      "outputs": [
        {
          "name": "",
          "type": "address"
        }
      ],
      "payable": false,
      "stateMutability": "view",
      "type": "function"
    },
    {
      "constant": true,
      "inputs": [
        {
          "name": "",
          "type": "address"
        },
        {
          "name": "",
          "type": "uint256"
        }
      ],
      "name": "unstakingList",
      "outputs": [
        {
          "name": "user",
          "type": "address"
        },
        {
          "name": "amount",
          "type": "uint256"
        },
        {
          "name": "due",
          "type": "uint256"
        },
        {
          "name": "state",
          "type": "uint8"
        },
        {
          "name": "idx",
          "type": "uint256"
        }
      ],
      "payable": false,
      "stateMutability": "view",
      "type": "function"
    },
    {
      "constant": true,
      "inputs": [
        {
          "name": "",
          "type": "address"
        }
      ],
      "name": "totalIn",
      "outputs": [
        {
          "name": "",
          "type": "uint256"
        }
      ],
      "payable": false,
      "stateMutability": "view",
      "type": "function"
    },
    {
      "constant": true,
      "inputs": [
        {
          "name": "",
          "type": "address"
        }
      ],
      "name": "extraAddrIntMap4",
      "outputs": [
        {
          "name": "",
          "type": "uint256"
        }
      ],
      "payable": false,
      "stateMutability": "view",
      "type": "function"
    },
    {
      "constant": true,
      "inputs": [],
      "name": "extraInt1",
      "outputs": [
        {
          "name": "",
          "type": "uint256"
        }
      ],
      "payable": false,
      "stateMutability": "view",
      "type": "function"
    },
    {
      "constant": true,
      "inputs": [],
      "name": "newOwner",
      "outputs": [
        {
          "name": "",
          "type": "address"
        }
      ],
      "payable": false,
      "stateMutability": "view",
      "type": "function"
    },
    {
      "constant": true,
      "inputs": [
        {
          "name": "",
          "type": "address"
        },
        {
          "name": "",
          "type": "address"
        },
        {
          "name": "",
          "type": "uint256"
        }
      ],
      "name": "subHistory",
      "outputs": [
        {
          "name": "action",
          "type": "uint8"
        },
        {
          "name": "time",
          "type": "uint256"
        },
        {
          "name": "amount",
          "type": "uint256"
        },
        {
          "name": "state",
          "type": "uint8"
        },
        {
          "name": "due",
          "type": "uint256"
        }
      ],
      "payable": false,
      "stateMutability": "view",
      "type": "function"
    },
    {
      "constant": true,
      "inputs": [
        {
          "name": "",
          "type": "address"
        }
      ],
      "name": "totalOut",
      "outputs": [
        {
          "name": "",
          "type": "uint256"
        }
      ],
      "payable": false,
      "stateMutability": "view",
      "type": "function"
    },
    {
      "constant": true,
      "inputs": [],
      "name": "extraAddr4",
      "outputs": [
        {
          "name": "",
          "type": "address"
        }
      ],
      "payable": false,
      "stateMutability": "view",
      "type": "function"
    },
    {
      "constant": true,
      "inputs": [
        {
          "name": "",
          "type": "address"
        },
        {
          "name": "",
          "type": "address"
        }
      ],
      "name": "subHistoryCount",
      "outputs": [
        {
          "name": "",
          "type": "uint256"
        }
      ],
      "payable": false,
      "stateMutability": "view",
      "type": "function"
    },
    {
      "constant": true,
      "inputs": [
        {
          "name": "",
          "type": "address"
        }
      ],
      "name": "deposit",
      "outputs": [
        {
          "name": "",
          "type": "uint256"
        }
      ],
      "payable": false,
      "stateMutability": "view",
      "type": "function"
    },
    {
      "constant": true,
      "inputs": [
        {
          "name": "",
          "type": "address"
        }
      ],
      "name": "sTotalOut",
      "outputs": [
        {
          "name": "",
          "type": "uint256"
        }
      ],
      "payable": false,
      "stateMutability": "view",
      "type": "function"
    },
    {
      "constant": true,
      "inputs": [
        {
          "name": "",
          "type": "address"
        }
      ],
      "name": "extraAddrIntMap1",
      "outputs": [
        {
          "name": "",
          "type": "uint256"
        }
      ],
      "payable": false,
      "stateMutability": "view",
      "type": "function"
    },
    {
      "constant": true,
      "inputs": [
        {
          "name": "",
          "type": "address"
        }
      ],
      "name": "sTotalIn",
      "outputs": [
        {
          "name": "",
          "type": "uint256"
        }
      ],
      "payable": false,
      "stateMutability": "view",
      "type": "function"
    },
    {
      "inputs": [],
      "payable": false,
      "stateMutability": "nonpayable",
      "type": "constructor"
    },
    {
      "constant": false,
      "inputs": [
        {
          "name": "_newOwner",
          "type": "address"
        }
      ],
      "name": "nextOwner",
      "outputs": [],
      "payable": false,
      "stateMutability": "nonpayable",
      "type": "function"
    },
    {
      "constant": false,
      "inputs": [],
      "name": "changeOwner",
      "outputs": [],
      "payable": false,
      "stateMutability": "nonpayable",
      "type": "function"
    },
    {
      "constant": false,
      "inputs": [
        {
          "name": "user",
          "type": "address"
        },
        {
          "name": "cnt",
          "type": "uint256"
        }
      ],
      "name": "setHistoryCount",
      "outputs": [],
      "payable": false,
      "stateMutability": "nonpayable",
      "type": "function"
    },
    {
      "constant": false,
      "inputs": [
        {
          "name": "user",
          "type": "address"
        },
        {
          "name": "idx",
          "type": "uint256"
        },
        {
          "name": "action",
          "type": "uint256"
        },
        {
          "name": "cn",
          "type": "address"
        },
        {
          "name": "time",
          "type": "uint256"
        },
        {
          "name": "amount",
          "type": "uint256"
        },
        {
          "name": "state",
          "type": "uint256"
        },
        {
          "name": "due",
          "type": "uint256"
        }
      ],
      "name": "setHistory",
      "outputs": [],
      "payable": false,
      "stateMutability": "nonpayable",
      "type": "function"
    },
    {
      "constant": false,
      "inputs": [
        {
          "name": "user",
          "type": "address"
        },
        {
          "name": "idx",
          "type": "uint256"
        },
        {
          "name": "state",
          "type": "uint256"
        }
      ],
      "name": "setHistoryState",
      "outputs": [],
      "payable": false,
      "stateMutability": "nonpayable",
      "type": "function"
    },
    {
      "constant": false,
      "inputs": [
        {
          "name": "cn",
          "type": "address"
        },
        {
          "name": "uid",
          "type": "uint256"
        },
        {
          "name": "user",
          "type": "address"
        },
        {
          "name": "idx",
          "type": "uint256"
        }
      ],
      "name": "setUnstakingMap",
      "outputs": [],
      "payable": false,
      "stateMutability": "nonpayable",
      "type": "function"
    },
    {
      "constant": false,
      "inputs": [
        {
          "name": "user",
          "type": "address"
        },
        {
          "name": "tokenAmount",
          "type": "uint256"
        }
      ],
      "name": "setDeposit",
      "outputs": [],
      "payable": false,
      "stateMutability": "nonpayable",
      "type": "function"
    },
    {
      "constant": false,
      "inputs": [
        {
          "name": "user",
          "type": "address"
        },
        {
          "name": "amount",
          "type": "uint256"
        }
      ],
      "name": "setTotalIn",
      "outputs": [],
      "payable": false,
      "stateMutability": "nonpayable",
      "type": "function"
    },
    {
      "constant": false,
      "inputs": [
        {
          "name": "user",
          "type": "address"
        },
        {
          "name": "amount",
          "type": "uint256"
        }
      ],
      "name": "setTotalOut",
      "outputs": [],
      "payable": false,
      "stateMutability": "nonpayable",
      "type": "function"
    },
    {
      "constant": false,
      "inputs": [
        {
          "name": "user",
          "type": "address"
        },
        {
          "name": "tokenAmount",
          "type": "uint256"
        }
      ],
      "name": "setSTotalIn",
      "outputs": [],
      "payable": false,
      "stateMutability": "nonpayable",
      "type": "function"
    },
    {
      "constant": false,
      "inputs": [
        {
          "name": "user",
          "type": "address"
        },
        {
          "name": "tokenAmount",
          "type": "uint256"
        }
      ],
      "name": "setSTotalOut",
      "outputs": [],
      "payable": false,
      "stateMutability": "nonpayable",
      "type": "function"
    },
    {
      "constant": false,
      "inputs": [
        {
          "name": "cn",
          "type": "address"
        },
        {
          "name": "user",
          "type": "address"
        },
        {
          "name": "cnt",
          "type": "uint256"
        }
      ],
      "name": "setSubHistoryCount",
      "outputs": [],
      "payable": false,
      "stateMutability": "nonpayable",
      "type": "function"
    },
    {
      "constant": false,
      "inputs": [
        {
          "name": "cn",
          "type": "address"
        },
        {
          "name": "user",
          "type": "address"
        },
        {
          "name": "idx",
          "type": "uint256"
        },
        {
          "name": "action",
          "type": "uint256"
        },
        {
          "name": "time",
          "type": "uint256"
        },
        {
          "name": "amount",
          "type": "uint256"
        },
        {
          "name": "state",
          "type": "uint256"
        },
        {
          "name": "due",
          "type": "uint256"
        }
      ],
      "name": "setSubHistory",
      "outputs": [],
      "payable": false,
      "stateMutability": "nonpayable",
      "type": "function"
    },
    {
      "constant": false,
      "inputs": [
        {
          "name": "cn",
          "type": "address"
        },
        {
          "name": "user",
          "type": "address"
        },
        {
          "name": "idx",
          "type": "uint256"
        },
        {
          "name": "state",
          "type": "uint256"
        }
      ],
      "name": "setSubHistoryState",
      "outputs": [],
      "payable": false,
      "stateMutability": "nonpayable",
      "type": "function"
    },
    {
      "constant": false,
      "inputs": [
        {
          "name": "cn",
          "type": "address"
        },
        {
          "name": "uid",
          "type": "uint256"
        }
      ],
      "name": "setLastUid",
      "outputs": [],
      "payable": false,
      "stateMutability": "nonpayable",
      "type": "function"
    },
    {
      "constant": false,
      "inputs": [
        {
          "name": "cn",
          "type": "address"
        },
        {
          "name": "uid",
          "type": "uint256"
        },
        {
          "name": "user",
          "type": "address"
        },
        {
          "name": "amount",
          "type": "uint256"
        },
        {
          "name": "due",
          "type": "uint256"
        },
        {
          "name": "state",
          "type": "uint256"
        },
        {
          "name": "idx",
          "type": "uint256"
        }
      ],
      "name": "setUnstakingList",
      "outputs": [],
      "payable": false,
      "stateMutability": "nonpayable",
      "type": "function"
    },
    {
      "constant": false,
      "inputs": [
        {
          "name": "cn",
          "type": "address"
        },
        {
          "name": "uid",
          "type": "uint256"
        },
        {
          "name": "state",
          "type": "uint256"
        }
      ],
      "name": "setUnstakingListState",
      "outputs": [],
      "payable": false,
      "stateMutability": "nonpayable",
      "type": "function"
    },
    {
      "constant": false,
      "inputs": [
        {
          "name": "user",
          "type": "address"
        },
        {
          "name": "amount",
          "type": "uint256"
        }
      ],
      "name": "setPending",
      "outputs": [],
      "payable": false,
      "stateMutability": "nonpayable",
      "type": "function"
    },
    {
      "constant": false,
      "inputs": [
        {
          "name": "amount",
          "type": "uint256"
        }
      ],
      "name": "setTotalPending",
      "outputs": [],
      "payable": false,
      "stateMutability": "nonpayable",
      "type": "function"
    },
    {
      "constant": false,
      "inputs": [
        {
          "name": "key1",
          "type": "address"
        },
        {
          "name": "key2",
          "type": "address"
        },
        {
          "name": "value",
          "type": "uint256"
        }
      ],
      "name": "setExtraAddrAddrInt1",
      "outputs": [],
      "payable": false,
      "stateMutability": "nonpayable",
      "type": "function"
    },
    {
      "constant": false,
      "inputs": [
        {
          "name": "key1",
          "type": "address"
        },
        {
          "name": "key2",
          "type": "address"
        },
        {
          "name": "value",
          "type": "uint256"
        }
      ],
      "name": "setExtraAddrAddrInt2",
      "outputs": [],
      "payable": false,
      "stateMutability": "nonpayable",
      "type": "function"
    },
    {
      "constant": false,
      "inputs": [
        {
          "name": "key1",
          "type": "address"
        },
        {
          "name": "key2",
          "type": "address"
        },
        {
          "name": "value",
          "type": "uint256"
        }
      ],
      "name": "setExtraAddrAddrInt3",
      "outputs": [],
      "payable": false,
      "stateMutability": "nonpayable",
      "type": "function"
    },
    {
      "constant": false,
      "inputs": [
        {
          "name": "key1",
          "type": "address"
        },
        {
          "name": "key2",
          "type": "address"
        },
        {
          "name": "value",
          "type": "uint256"
        }
      ],
      "name": "setExtraAddrAddrInt4",
      "outputs": [],
      "payable": false,
      "stateMutability": "nonpayable",
      "type": "function"
    },
    {
      "constant": false,
      "inputs": [
        {
          "name": "key",
          "type": "address"
        },
        {
          "name": "value",
          "type": "uint256"
        }
      ],
      "name": "setExtraAddrIntMap1",
      "outputs": [],
      "payable": false,
      "stateMutability": "nonpayable",
      "type": "function"
    },
    {
      "constant": false,
      "inputs": [
        {
          "name": "key",
          "type": "address"
        },
        {
          "name": "value",
          "type": "uint256"
        }
      ],
      "name": "setExtraAddrIntMap2",
      "outputs": [],
      "payable": false,
      "stateMutability": "nonpayable",
      "type": "function"
    },
    {
      "constant": false,
      "inputs": [
        {
          "name": "key",
          "type": "address"
        },
        {
          "name": "value",
          "type": "uint256"
        }
      ],
      "name": "setExtraAddrIntMap3",
      "outputs": [],
      "payable": false,
      "stateMutability": "nonpayable",
      "type": "function"
    },
    {
      "constant": false,
      "inputs": [
        {
          "name": "key",
          "type": "address"
        },
        {
          "name": "value",
          "type": "uint256"
        }
      ],
      "name": "setExtraAddrIntMap4",
      "outputs": [],
      "payable": false,
      "stateMutability": "nonpayable",
      "type": "function"
    },
    {
      "constant": false,
      "inputs": [
        {
          "name": "value",
          "type": "uint256"
        }
      ],
      "name": "setExtraInt1",
      "outputs": [],
      "payable": false,
      "stateMutability": "nonpayable",
      "type": "function"
    },
    {
      "constant": false,
      "inputs": [
        {
          "name": "value",
          "type": "uint256"
        }
      ],
      "name": "setExtraInt2",
      "outputs": [],
      "payable": false,
      "stateMutability": "nonpayable",
      "type": "function"
    },
    {
      "constant": false,
      "inputs": [
        {
          "name": "value",
          "type": "uint256"
        }
      ],
      "name": "setExtraInt3",
      "outputs": [],
      "payable": false,
      "stateMutability": "nonpayable",
      "type": "function"
    },
    {
      "constant": false,
      "inputs": [
        {
          "name": "value",
          "type": "uint256"
        }
      ],
      "name": "setExtraInt4",
      "outputs": [],
      "payable": false,
      "stateMutability": "nonpayable",
      "type": "function"
    },
    {
      "constant": false,
      "inputs": [
        {
          "name": "value",
          "type": "address"
        }
      ],
      "name": "setExtraAddress1",
      "outputs": [],
      "payable": false,
      "stateMutability": "nonpayable",
      "type": "function"
    },
    {
      "constant": false,
      "inputs": [
        {
          "name": "value",
          "type": "address"
        }
      ],
      "name": "setExtraAddress2",
      "outputs": [],
      "payable": false,
      "stateMutability": "nonpayable",
      "type": "function"
    },
    {
      "constant": false,
      "inputs": [
        {
          "name": "value",
          "type": "address"
        }
      ],
      "name": "setExtraAddress3",
      "outputs": [],
      "payable": false,
      "stateMutability": "nonpayable",
      "type": "function"
    },
    {
      "constant": false,
      "inputs": [
        {
          "name": "value",
          "type": "address"
        }
      ],
      "name": "setExtraAddress4",
      "outputs": [],
      "payable": false,
      "stateMutability": "nonpayable",
      "type": "function"
    },
    {
      "constant": true,
      "inputs": [
        {
          "name": "cn",
          "type": "address"
        },
        {
          "name": "uid",
          "type": "uint256"
        }
      ],
      "name": "getUnstakingMap",
      "outputs": [
        {
          "name": "",
          "type": "address"
        },
        {
          "name": "",
          "type": "uint256"
        }
      ],
      "payable": false,
      "stateMutability": "view",
      "type": "function"
    },
    {
      "constant": true,
      "inputs": [
        {
          "name": "cn",
          "type": "address"
        },
        {
          "name": "uid",
          "type": "uint256"
        }
      ],
      "name": "getUnstakingList",
      "outputs": [
        {
          "name": "",
          "type": "address"
        },
        {
          "name": "",
          "type": "uint256"
        },
        {
          "name": "",
          "type": "uint256"
        },
        {
          "name": "",
          "type": "uint256"
        },
        {
          "name": "",
          "type": "uint256"
        }
      ],
      "payable": false,
      "stateMutability": "view",
      "type": "function"
    },
    {
      "constant": true,
      "inputs": [
        {
          "name": "user",
          "type": "address"
        },
        {
          "name": "idx",
          "type": "uint256"
        }
      ],
      "name": "getHistory",
      "outputs": [
        {
          "name": "",
          "type": "uint256"
        },
        {
          "name": "",
          "type": "address"
        },
        {
          "name": "",
          "type": "uint256"
        },
        {
          "name": "",
          "type": "uint256"
        },
        {
          "name": "",
          "type": "uint256"
        },
        {
          "name": "",
          "type": "uint256"
        }
      ],
      "payable": false,
      "stateMutability": "view",
      "type": "function"
    },
    {
      "constant": true,
      "inputs": [
        {
          "name": "cn",
          "type": "address"
        },
        {
          "name": "user",
          "type": "address"
        },
        {
          "name": "idx",
          "type": "uint256"
        }
      ],
      "name": "getSubHistory",
      "outputs": [
        {
          "name": "",
          "type": "uint256"
        },
        {
          "name": "",
          "type": "uint256"
        },
        {
          "name": "",
          "type": "uint256"
        },
        {
          "name": "",
          "type": "uint256"
        },
        {
          "name": "",
          "type": "uint256"
        }
      ],
      "payable": false,
      "stateMutability": "view",
      "type": "function"
    },
    {
      "constant": true,
      "inputs": [],
      "name": "getUserListLength",
      "outputs": [
        {
          "name": "",
          "type": "uint256"
        }
      ],
      "payable": false,
      "stateMutability": "view",
      "type": "function"
    }
  ],
  "bytecode": "0x608060405234801561001057600080fd5b50336000806101000a81548173ffffffffffffffffffffffffffffffffffffffff021916908373ffffffffffffffffffffffffffffffffffffffff16021790555061471d806100606000396000f30060806040526004361061036f576000357c0100000000000000000000000000000000000000000000000000000000900463ffffffff1680630515b0791461037457806305781b5c146103e157806305fe2fc114610458578063062cef741461048357806306cac776146104d05780630bc13f9e146104fd5780630d4aab501461059c578063101c53d5146105df578063105a5d551461062c57806312462ee5146106a357806315fe24ec146106f057806316c56e8c1461073d57806316ff690d1461079457806321285595146107bf578063225089d7146108025780632418385f14610896578063283d2fb0146108c15780632e4122d51461093857806331bbddcf1461098f578063367d3036146109fc5780633ae9020214610a535780633b76ea6714610ac05780633c1b202214610b175780633d31459414610b5a5780633ef6d42614610bd15780633f90916a14610c1e578063485f56cd14610c495780634b113f4c14610cb65780634cc5cdf214610d2d5780634fa712b314610d8857806354fd4d5014610ddf57806357fee03014610e6f5780635eebea2014610edc57806362a0947714610f335780636ebc090f14610f4a5780636f38e60714610fa157806371e5895b14610ff85780637718f4ec1461103b578063780a41ab146111075780637b4e6e81146111545780637daaf6ee146111fd5780637ed213571461124a57806387df735d146112a15780638a126aee146112ce5780638ab382941461133b5780638bdf5803146113d05780638f55a22b146114805780638ff060e5146114ab57806390e4d2bd1461153f578063919721dd1461158c578063960a814614611603578063a18cd09414611650578063a76f7a751461167d578063b2bdfa7b146116ca578063b54d020014611721578063b6b4d53c146117d8578063b92c9fe31461182f578063bb62c0371461185c578063c077ffbc146118b3578063c17ac0cc14611900578063c187d3e31461199f578063c57bba1814611a3c578063c6b21b0214611a69578063cf937dcd14611ab6578063d4ee1d9014611ae1578063dc97f6f714611b38578063e5dbd42614611bf1578063ec1d7dd514611c48578063eeac087914611c9f578063f110c93814611ce2578063f28a6f5f14611d39578063f340fa0114611db0578063f4e7d7c814611e07578063f4f5c21614611e5e578063fe34b17c14611eb5575b600080fd5b34801561038057600080fd5b506103df600480360381019080803573ffffffffffffffffffffffffffffffffffffffff169060200190929190803573ffffffffffffffffffffffffffffffffffffffff16906020019092919080359060200190929190505050611f0c565b005b3480156103ed57600080fd5b50610442600480360381019080803573ffffffffffffffffffffffffffffffffffffffff169060200190929190803573ffffffffffffffffffffffffffffffffffffffff169060200190929190505050611fed565b6040518082815260200191505060405180910390f35b34801561046457600080fd5b5061046d612012565b6040518082815260200191505060405180910390f35b34801561048f57600080fd5b506104ce600480360381019080803573ffffffffffffffffffffffffffffffffffffffff1690602001909291908035906020019092919050505061201f565b005b3480156104dc57600080fd5b506104fb600480360381019080803590602001909291905050506120c2565b005b34801561050957600080fd5b5061059a600480360381019080803573ffffffffffffffffffffffffffffffffffffffff1690602001909291908035906020019092919080359060200190929190803573ffffffffffffffffffffffffffffffffffffffff16906020019092919080359060200190929190803590602001909291908035906020019092919080359060200190929190505050612127565b005b3480156105a857600080fd5b506105dd600480360381019080803573ffffffffffffffffffffffffffffffffffffffff169060200190929190505050612306565b005b3480156105eb57600080fd5b5061062a600480360381019080803573ffffffffffffffffffffffffffffffffffffffff169060200190929190803590602001909291905050506123a5565b005b34801561063857600080fd5b5061068d600480360381019080803573ffffffffffffffffffffffffffffffffffffffff169060200190929190803573ffffffffffffffffffffffffffffffffffffffff169060200190929190505050612448565b6040518082815260200191505060405180910390f35b3480156106af57600080fd5b506106ee600480360381019080803573ffffffffffffffffffffffffffffffffffffffff1690602001909291908035906020019092919050505061246d565b005b3480156106fc57600080fd5b5061073b600480360381019080803573ffffffffffffffffffffffffffffffffffffffff16906020019092919080359060200190929190505050612510565b005b34801561074957600080fd5b5061077e600480360381019080803573ffffffffffffffffffffffffffffffffffffffff1690602001909291905050506125b3565b6040518082815260200191505060405180910390f35b3480156107a057600080fd5b506107a96125cb565b6040518082815260200191505060405180910390f35b3480156107cb57600080fd5b50610800600480360381019080803573ffffffffffffffffffffffffffffffffffffffff1690602001909291905050506125d1565b005b34801561080e57600080fd5b5061084d600480360381019080803573ffffffffffffffffffffffffffffffffffffffff16906020019092919080359060200190929190505050612670565b604051808373ffffffffffffffffffffffffffffffffffffffff1673ffffffffffffffffffffffffffffffffffffffff1681526020018281526020019250505060405180910390f35b3480156108a257600080fd5b506108ab6126c1565b6040518082815260200191505060405180910390f35b3480156108cd57600080fd5b50610922600480360381019080803573ffffffffffffffffffffffffffffffffffffffff169060200190929190803573ffffffffffffffffffffffffffffffffffffffff1690602001909291905050506126c7565b6040518082815260200191505060405180910390f35b34801561094457600080fd5b50610979600480360381019080803573ffffffffffffffffffffffffffffffffffffffff1690602001909291905050506126ec565b6040518082815260200191505060405180910390f35b34801561099b57600080fd5b506109ba60048036038101908080359060200190929190505050612704565b604051808273ffffffffffffffffffffffffffffffffffffffff1673ffffffffffffffffffffffffffffffffffffffff16815260200191505060405180910390f35b348015610a0857600080fd5b50610a51600480360381019080803573ffffffffffffffffffffffffffffffffffffffff1690602001909291908035906020019092919080359060200190929190505050612742565b005b348015610a5f57600080fd5b50610abe600480360381019080803573ffffffffffffffffffffffffffffffffffffffff169060200190929190803573ffffffffffffffffffffffffffffffffffffffff16906020019092919080359060200190929190505050612821565b005b348015610acc57600080fd5b50610ad5612902565b604051808273ffffffffffffffffffffffffffffffffffffffff1673ffffffffffffffffffffffffffffffffffffffff16815260200191505060405180910390f35b348015610b2357600080fd5b50610b58600480360381019080803573ffffffffffffffffffffffffffffffffffffffff169060200190929190505050612928565b005b348015610b6657600080fd5b50610bcf600480360381019080803573ffffffffffffffffffffffffffffffffffffffff169060200190929190803573ffffffffffffffffffffffffffffffffffffffff16906020019092919080359060200190929190803590602001909291905050506129c7565b005b348015610bdd57600080fd5b50610c1c600480360381019080803573ffffffffffffffffffffffffffffffffffffffff16906020019092919080359060200190929190505050612ae4565b005b348015610c2a57600080fd5b50610c33612b87565b6040518082815260200191505060405180910390f35b348015610c5557600080fd5b50610cb4600480360381019080803573ffffffffffffffffffffffffffffffffffffffff169060200190929190803573ffffffffffffffffffffffffffffffffffffffff16906020019092919080359060200190929190505050612b8d565b005b348015610cc257600080fd5b50610d2b600480360381019080803573ffffffffffffffffffffffffffffffffffffffff16906020019092919080359060200190929190803573ffffffffffffffffffffffffffffffffffffffff16906020019092919080359060200190929190505050612c6e565b005b348015610d3957600080fd5b50610d6e600480360381019080803573ffffffffffffffffffffffffffffffffffffffff169060200190929190505050612d9e565b604051808215151515815260200191505060405180910390f35b348015610d9457600080fd5b50610dc9600480360381019080803573ffffffffffffffffffffffffffffffffffffffff169060200190929190505050612dbe565b6040518082815260200191505060405180910390f35b348015610deb57600080fd5b50610df4612dd6565b6040518080602001828103825283818151815260200191508051906020019080838360005b83811015610e34578082015181840152602081019050610e19565b50505050905090810190601f168015610e615780820380516001836020036101000a031916815260200191505b509250505060405180910390f35b348015610e7b57600080fd5b50610eda600480360381019080803573ffffffffffffffffffffffffffffffffffffffff169060200190929190803573ffffffffffffffffffffffffffffffffffffffff16906020019092919080359060200190929190505050612e0f565b005b348015610ee857600080fd5b50610f1d600480360381019080803573ffffffffffffffffffffffffffffffffffffffff169060200190929190505050612ef0565b6040518082815260200191505060405180910390f35b348015610f3f57600080fd5b50610f48612f08565b005b348015610f5657600080fd5b50610f8b600480360381019080803573ffffffffffffffffffffffffffffffffffffffff16906020019092919050505061300a565b6040518082815260200191505060405180910390f35b348015610fad57600080fd5b50610fb6613022565b604051808273ffffffffffffffffffffffffffffffffffffffff1673ffffffffffffffffffffffffffffffffffffffff16815260200191505060405180910390f35b34801561100457600080fd5b50611039600480360381019080803573ffffffffffffffffffffffffffffffffffffffff169060200190929190505050613048565b005b34801561104757600080fd5b50611086600480360381019080803573ffffffffffffffffffffffffffffffffffffffff169060200190929190803590602001909291905050506130e7565b6040518087600181111561109657fe5b60ff1681526020018673ffffffffffffffffffffffffffffffffffffffff1673ffffffffffffffffffffffffffffffffffffffff1681526020018581526020018481526020018360028111156110e857fe5b60ff168152602001828152602001965050505050505060405180910390f35b34801561111357600080fd5b50611152600480360381019080803573ffffffffffffffffffffffffffffffffffffffff1690602001909291908035906020019092919050505061316a565b005b34801561116057600080fd5b5061119f600480360381019080803573ffffffffffffffffffffffffffffffffffffffff1690602001909291908035906020019092919050505061320d565b604051808673ffffffffffffffffffffffffffffffffffffffff1673ffffffffffffffffffffffffffffffffffffffff1681526020018581526020018481526020018381526020018281526020019550505050505060405180910390f35b34801561120957600080fd5b50611248600480360381019080803573ffffffffffffffffffffffffffffffffffffffff16906020019092919080359060200190929190505050613355565b005b34801561125657600080fd5b5061125f6133f8565b604051808273ffffffffffffffffffffffffffffffffffffffff1673ffffffffffffffffffffffffffffffffffffffff16815260200191505060405180910390f35b3480156112ad57600080fd5b506112cc6004803603810190808035906020019092919050505061341e565b005b3480156112da57600080fd5b50611339600480360381019080803573ffffffffffffffffffffffffffffffffffffffff169060200190929190803573ffffffffffffffffffffffffffffffffffffffff16906020019092919080359060200190929190505050613483565b005b34801561134757600080fd5b506113ce600480360381019080803573ffffffffffffffffffffffffffffffffffffffff16906020019092919080359060200190929190803573ffffffffffffffffffffffffffffffffffffffff16906020019092919080359060200190929190803590602001909291908035906020019092919080359060200190929190505050613564565b005b3480156113dc57600080fd5b5061141b600480360381019080803573ffffffffffffffffffffffffffffffffffffffff169060200190929190803590602001909291905050506136fd565b604051808781526020018673ffffffffffffffffffffffffffffffffffffffff1673ffffffffffffffffffffffffffffffffffffffff168152602001858152602001848152602001838152602001828152602001965050505050505060405180910390f35b34801561148c57600080fd5b50611495613885565b6040518082815260200191505060405180910390f35b3480156114b757600080fd5b506114f6600480360381019080803573ffffffffffffffffffffffffffffffffffffffff1690602001909291908035906020019092919050505061388b565b604051808373ffffffffffffffffffffffffffffffffffffffff1673ffffffffffffffffffffffffffffffffffffffff1681526020018281526020019250505060405180910390f35b34801561154b57600080fd5b5061158a600480360381019080803573ffffffffffffffffffffffffffffffffffffffff16906020019092919080359060200190929190505050613969565b005b34801561159857600080fd5b506115ed600480360381019080803573ffffffffffffffffffffffffffffffffffffffff169060200190929190803573ffffffffffffffffffffffffffffffffffffffff169060200190929190505050613a0c565b6040518082815260200191505060405180910390f35b34801561160f57600080fd5b5061164e600480360381019080803573ffffffffffffffffffffffffffffffffffffffff16906020019092919080359060200190929190505050613a31565b005b34801561165c57600080fd5b5061167b60048036038101908080359060200190929190505050613ad4565b005b34801561168957600080fd5b506116c8600480360381019080803573ffffffffffffffffffffffffffffffffffffffff16906020019092919080359060200190929190505050613b39565b005b3480156116d657600080fd5b506116df613bdc565b604051808273ffffffffffffffffffffffffffffffffffffffff1673ffffffffffffffffffffffffffffffffffffffff16815260200191505060405180910390f35b34801561172d57600080fd5b5061176c600480360381019080803573ffffffffffffffffffffffffffffffffffffffff16906020019092919080359060200190929190505050613c01565b604051808673ffffffffffffffffffffffffffffffffffffffff1673ffffffffffffffffffffffffffffffffffffffff1681526020018581526020018481526020018360028111156117ba57fe5b60ff1681526020018281526020019550505050505060405180910390f35b3480156117e457600080fd5b50611819600480360381019080803573ffffffffffffffffffffffffffffffffffffffff169060200190929190505050613c71565b6040518082815260200191505060405180910390f35b34801561183b57600080fd5b5061185a60048036038101908080359060200190929190505050613c89565b005b34801561186857600080fd5b5061189d600480360381019080803573ffffffffffffffffffffffffffffffffffffffff169060200190929190505050613cee565b6040518082815260200191505060405180910390f35b3480156118bf57600080fd5b506118fe600480360381019080803573ffffffffffffffffffffffffffffffffffffffff16906020019092919080359060200190929190505050613d06565b005b34801561190c57600080fd5b5061199d600480360381019080803573ffffffffffffffffffffffffffffffffffffffff169060200190929190803573ffffffffffffffffffffffffffffffffffffffff169060200190929190803590602001909291908035906020019092919080359060200190929190803590602001909291908035906020019092919080359060200190929190505050613da9565b005b3480156119ab57600080fd5b50611a0a600480360381019080803573ffffffffffffffffffffffffffffffffffffffff169060200190929190803573ffffffffffffffffffffffffffffffffffffffff16906020019092919080359060200190929190505050613f62565b604051808681526020018581526020018481526020018381526020018281526020019550505050505060405180910390f35b348015611a4857600080fd5b50611a67600480360381019080803590602001909291905050506140ca565b005b348015611a7557600080fd5b50611ab4600480360381019080803573ffffffffffffffffffffffffffffffffffffffff1690602001909291908035906020019092919050505061412f565b005b348015611ac257600080fd5b50611acb6141db565b6040518082815260200191505060405180910390f35b348015611aed57600080fd5b50611af66141e1565b604051808273ffffffffffffffffffffffffffffffffffffffff1673ffffffffffffffffffffffffffffffffffffffff16815260200191505060405180910390f35b348015611b4457600080fd5b50611ba3600480360381019080803573ffffffffffffffffffffffffffffffffffffffff169060200190929190803573ffffffffffffffffffffffffffffffffffffffff16906020019092919080359060200190929190505050614207565b60405180866001811115611bb357fe5b60ff168152602001858152602001848152602001836002811115611bd357fe5b60ff1681526020018281526020019550505050505060405180910390f35b348015611bfd57600080fd5b50611c32600480360381019080803573ffffffffffffffffffffffffffffffffffffffff169060200190929190505050614271565b6040518082815260200191505060405180910390f35b348015611c5457600080fd5b50611c5d614289565b604051808273ffffffffffffffffffffffffffffffffffffffff1673ffffffffffffffffffffffffffffffffffffffff16815260200191505060405180910390f35b348015611cab57600080fd5b50611ce0600480360381019080803573ffffffffffffffffffffffffffffffffffffffff1690602001909291905050506142af565b005b348015611cee57600080fd5b50611d37600480360381019080803573ffffffffffffffffffffffffffffffffffffffff169060200190929190803590602001909291908035906020019092919050505061434e565b005b348015611d4557600080fd5b50611d9a600480360381019080803573ffffffffffffffffffffffffffffffffffffffff169060200190929190803573ffffffffffffffffffffffffffffffffffffffff16906020019092919050505061442d565b6040518082815260200191505060405180910390f35b348015611dbc57600080fd5b50611df1600480360381019080803573ffffffffffffffffffffffffffffffffffffffff169060200190929190505050614452565b6040518082815260200191505060405180910390f35b348015611e1357600080fd5b50611e48600480360381019080803573ffffffffffffffffffffffffffffffffffffffff16906020019092919050505061446a565b6040518082815260200191505060405180910390f35b348015611e6a57600080fd5b50611e9f600480360381019080803573ffffffffffffffffffffffffffffffffffffffff169060200190929190505050614482565b6040518082815260200191505060405180910390f35b348015611ec157600080fd5b50611ef6600480360381019080803573ffffffffffffffffffffffffffffffffffffffff16906020019092919050505061449a565b6040518082815260200191505060405180910390f35b6000809054906101000a900473ffffffffffffffffffffffffffffffffffffffff1673ffffffffffffffffffffffffffffffffffffffff163373ffffffffffffffffffffffffffffffffffffffff16141515611f6757600080fd5b80600a60008573ffffffffffffffffffffffffffffffffffffffff1673ffffffffffffffffffffffffffffffffffffffff16815260200190815260200160002060008473ffffffffffffffffffffffffffffffffffffffff1673ffffffffffffffffffffffffffffffffffffffff16815260200190815260200160002081905550505050565b6012602052816000526040600020602052806000526040600020600091509150505481565b6000601180549050905090565b6000809054906101000a900473ffffffffffffffffffffffffffffffffffffffff1673ffffffffffffffffffffffffffffffffffffffff163373ffffffffffffffffffffffffffffffffffffffff1614151561207a57600080fd5b80600960008473ffffffffffffffffffffffffffffffffffffffff1673ffffffffffffffffffffffffffffffffffffffff168152602001908152602001600020819055505050565b6000809054906101000a900473ffffffffffffffffffffffffffffffffffffffff1673ffffffffffffffffffffffffffffffffffffffff163373ffffffffffffffffffffffffffffffffffffffff1614151561211d57600080fd5b80601c8190555050565b6000809054906101000a900473ffffffffffffffffffffffffffffffffffffffff1673ffffffffffffffffffffffffffffffffffffffff163373ffffffffffffffffffffffffffffffffffffffff1614151561218257600080fd5b60c06040519081016040528087600181111561219a57fe5b60018111156121a557fe5b81526020018673ffffffffffffffffffffffffffffffffffffffff1681526020018581526020018481526020018360028111156121de57fe5b60028111156121e957fe5b815260200182815250600360008a73ffffffffffffffffffffffffffffffffffffffff1673ffffffffffffffffffffffffffffffffffffffff168152602001908152602001600020600089815260200190815260200160002060008201518160000160006101000a81548160ff0219169083600181111561226657fe5b021790555060208201518160000160016101000a81548173ffffffffffffffffffffffffffffffffffffffff021916908373ffffffffffffffffffffffffffffffffffffffff160217905550604082015181600101556060820151816002015560808201518160030160006101000a81548160ff021916908360028111156122ea57fe5b021790555060a082015181600401559050505050505050505050565b6000809054906101000a900473ffffffffffffffffffffffffffffffffffffffff1673ffffffffffffffffffffffffffffffffffffffff163373ffffffffffffffffffffffffffffffffffffffff1614151561236157600080fd5b80602160006101000a81548173ffffffffffffffffffffffffffffffffffffffff021916908373ffffffffffffffffffffffffffffffffffffffff16021790555050565b6000809054906101000a900473ffffffffffffffffffffffffffffffffffffffff1673ffffffffffffffffffffffffffffffffffffffff163373ffffffffffffffffffffffffffffffffffffffff1614151561240057600080fd5b80600c60008473ffffffffffffffffffffffffffffffffffffffff1673ffffffffffffffffffffffffffffffffffffffff168152602001908152602001600020819055505050565b6014602052816000526040600020602052806000526040600020600091509150505481565b6000809054906101000a900473ffffffffffffffffffffffffffffffffffffffff1673ffffffffffffffffffffffffffffffffffffffff163373ffffffffffffffffffffffffffffffffffffffff161415156124c857600080fd5b80600660008473ffffffffffffffffffffffffffffffffffffffff1673ffffffffffffffffffffffffffffffffffffffff168152602001908152602001600020819055505050565b6000809054906101000a900473ffffffffffffffffffffffffffffffffffffffff1673ffffffffffffffffffffffffffffffffffffffff163373ffffffffffffffffffffffffffffffffffffffff1614151561256b57600080fd5b80601660008473ffffffffffffffffffffffffffffffffffffffff1673ffffffffffffffffffffffffffffffffffffffff168152602001908152602001600020819055505050565b60186020528060005260406000206000915090505481565b601d5481565b6000809054906101000a900473ffffffffffffffffffffffffffffffffffffffff1673ffffffffffffffffffffffffffffffffffffffff163373ffffffffffffffffffffffffffffffffffffffff1614151561262c57600080fd5b80602060006101000a81548173ffffffffffffffffffffffffffffffffffffffff021916908373ffffffffffffffffffffffffffffffffffffffff16021790555050565b6004602052816000526040600020602052806000526040600020600091509150508060000160009054906101000a900473ffffffffffffffffffffffffffffffffffffffff16908060010154905082565b601c5481565b6015602052816000526040600020602052806000526040600020600091509150505481565b60026020528060005260406000206000915090505481565b60118181548110151561271357fe5b906000526020600020016000915054906101000a900473ffffffffffffffffffffffffffffffffffffffff1681565b6000809054906101000a900473ffffffffffffffffffffffffffffffffffffffff1673ffffffffffffffffffffffffffffffffffffffff163373ffffffffffffffffffffffffffffffffffffffff1614151561279d57600080fd5b8060028111156127a957fe5b600360008573ffffffffffffffffffffffffffffffffffffffff1673ffffffffffffffffffffffffffffffffffffffff168152602001908152602001600020600084815260200190815260200160002060030160006101000a81548160ff0219169083600281111561281757fe5b0217905550505050565b6000809054906101000a900473ffffffffffffffffffffffffffffffffffffffff1673ffffffffffffffffffffffffffffffffffffffff163373ffffffffffffffffffffffffffffffffffffffff1614151561287c57600080fd5b80601560008573ffffffffffffffffffffffffffffffffffffffff1673ffffffffffffffffffffffffffffffffffffffff16815260200190815260200160002060008473ffffffffffffffffffffffffffffffffffffffff1673ffffffffffffffffffffffffffffffffffffffff16815260200190815260200160002081905550505050565b601e60009054906101000a900473ffffffffffffffffffffffffffffffffffffffff1681565b6000809054906101000a900473ffffffffffffffffffffffffffffffffffffffff1673ffffffffffffffffffffffffffffffffffffffff163373ffffffffffffffffffffffffffffffffffffffff1614151561298357600080fd5b80601e60006101000a81548173ffffffffffffffffffffffffffffffffffffffff021916908373ffffffffffffffffffffffffffffffffffffffff16021790555050565b6000809054906101000a900473ffffffffffffffffffffffffffffffffffffffff1673ffffffffffffffffffffffffffffffffffffffff163373ffffffffffffffffffffffffffffffffffffffff16141515612a2257600080fd5b806002811115612a2e57fe5b600b60008673ffffffffffffffffffffffffffffffffffffffff1673ffffffffffffffffffffffffffffffffffffffff16815260200190815260200160002060008573ffffffffffffffffffffffffffffffffffffffff1673ffffffffffffffffffffffffffffffffffffffff168152602001908152602001600020600084815260200190815260200160002060030160006101000a81548160ff02191690836002811115612ad957fe5b021790555050505050565b6000809054906101000a900473ffffffffffffffffffffffffffffffffffffffff1673ffffffffffffffffffffffffffffffffffffffff163373ffffffffffffffffffffffffffffffffffffffff16141515612b3f57600080fd5b80601960008473ffffffffffffffffffffffffffffffffffffffff1673ffffffffffffffffffffffffffffffffffffffff168152602001908152602001600020819055505050565b600f5481565b6000809054906101000a900473ffffffffffffffffffffffffffffffffffffffff1673ffffffffffffffffffffffffffffffffffffffff163373ffffffffffffffffffffffffffffffffffffffff16141515612be857600080fd5b80601460008573ffffffffffffffffffffffffffffffffffffffff1673ffffffffffffffffffffffffffffffffffffffff16815260200190815260200160002060008473ffffffffffffffffffffffffffffffffffffffff1673ffffffffffffffffffffffffffffffffffffffff16815260200190815260200160002081905550505050565b6000809054906101000a900473ffffffffffffffffffffffffffffffffffffffff1673ffffffffffffffffffffffffffffffffffffffff163373ffffffffffffffffffffffffffffffffffffffff16141515612cc957600080fd5b60408051908101604052808373ffffffffffffffffffffffffffffffffffffffff16815260200182815250600460008673ffffffffffffffffffffffffffffffffffffffff1673ffffffffffffffffffffffffffffffffffffffff168152602001908152602001600020600085815260200190815260200160002060008201518160000160006101000a81548173ffffffffffffffffffffffffffffffffffffffff021916908373ffffffffffffffffffffffffffffffffffffffff1602179055506020820151816001015590505050505050565b60106020528060005260406000206000915054906101000a900460ff1681565b600c6020528060005260406000206000915090505481565b6040805190810160405280600481526020017f303732320000000000000000000000000000000000000000000000000000000081525081565b6000809054906101000a900473ffffffffffffffffffffffffffffffffffffffff1673ffffffffffffffffffffffffffffffffffffffff163373ffffffffffffffffffffffffffffffffffffffff16141515612e6a57600080fd5b80601260008573ffffffffffffffffffffffffffffffffffffffff1673ffffffffffffffffffffffffffffffffffffffff16815260200190815260200160002060008473ffffffffffffffffffffffffffffffffffffffff1673ffffffffffffffffffffffffffffffffffffffff16815260200190815260200160002081905550505050565b600e6020528060005260406000206000915090505481565b600160009054906101000a900473ffffffffffffffffffffffffffffffffffffffff1673ffffffffffffffffffffffffffffffffffffffff163373ffffffffffffffffffffffffffffffffffffffff16141515612f6457600080fd5b600160009054906101000a900473ffffffffffffffffffffffffffffffffffffffff166000806101000a81548173ffffffffffffffffffffffffffffffffffffffff021916908373ffffffffffffffffffffffffffffffffffffffff1602179055506000600160006101000a81548173ffffffffffffffffffffffffffffffffffffffff021916908373ffffffffffffffffffffffffffffffffffffffff160217905550565b60176020528060005260406000206000915090505481565b601f60009054906101000a900473ffffffffffffffffffffffffffffffffffffffff1681565b6000809054906101000a900473ffffffffffffffffffffffffffffffffffffffff1673ffffffffffffffffffffffffffffffffffffffff163373ffffffffffffffffffffffffffffffffffffffff161415156130a357600080fd5b80601f60006101000a81548173ffffffffffffffffffffffffffffffffffffffff021916908373ffffffffffffffffffffffffffffffffffffffff16021790555050565b6003602052816000526040600020602052806000526040600020600091509150508060000160009054906101000a900460ff16908060000160019054906101000a900473ffffffffffffffffffffffffffffffffffffffff16908060010154908060020154908060030160009054906101000a900460ff16908060040154905086565b6000809054906101000a900473ffffffffffffffffffffffffffffffffffffffff1673ffffffffffffffffffffffffffffffffffffffff163373ffffffffffffffffffffffffffffffffffffffff161415156131c557600080fd5b80601760008473ffffffffffffffffffffffffffffffffffffffff1673ffffffffffffffffffffffffffffffffffffffff168152602001908152602001600020819055505050565b600080600080600061321d6145c7565b600d60008973ffffffffffffffffffffffffffffffffffffffff1673ffffffffffffffffffffffffffffffffffffffff168152602001908152602001600020600088815260200190815260200160002060a060405190810160405290816000820160009054906101000a900473ffffffffffffffffffffffffffffffffffffffff1673ffffffffffffffffffffffffffffffffffffffff1673ffffffffffffffffffffffffffffffffffffffff16815260200160018201548152602001600282015481526020016003820160009054906101000a900460ff16600281111561330157fe5b600281111561330c57fe5b815260200160048201548152505090508060000151816020015182604001518360600151600281111561333b57fe5b846080015195509550955095509550509295509295909350565b6000809054906101000a900473ffffffffffffffffffffffffffffffffffffffff1673ffffffffffffffffffffffffffffffffffffffff163373ffffffffffffffffffffffffffffffffffffffff161415156133b057600080fd5b80600260008473ffffffffffffffffffffffffffffffffffffffff1673ffffffffffffffffffffffffffffffffffffffff168152602001908152602001600020819055505050565b602060009054906101000a900473ffffffffffffffffffffffffffffffffffffffff1681565b6000809054906101000a900473ffffffffffffffffffffffffffffffffffffffff1673ffffffffffffffffffffffffffffffffffffffff163373ffffffffffffffffffffffffffffffffffffffff1614151561347957600080fd5b80600f8190555050565b6000809054906101000a900473ffffffffffffffffffffffffffffffffffffffff1673ffffffffffffffffffffffffffffffffffffffff163373ffffffffffffffffffffffffffffffffffffffff161415156134de57600080fd5b80601360008573ffffffffffffffffffffffffffffffffffffffff1673ffffffffffffffffffffffffffffffffffffffff16815260200190815260200160002060008473ffffffffffffffffffffffffffffffffffffffff1673ffffffffffffffffffffffffffffffffffffffff16815260200190815260200160002081905550505050565b6000809054906101000a900473ffffffffffffffffffffffffffffffffffffffff1673ffffffffffffffffffffffffffffffffffffffff163373ffffffffffffffffffffffffffffffffffffffff161415156135bf57600080fd5b60a0604051908101604052808673ffffffffffffffffffffffffffffffffffffffff1681526020018581526020018481526020018360028111156135ff57fe5b600281111561360a57fe5b815260200182815250600d60008973ffffffffffffffffffffffffffffffffffffffff1673ffffffffffffffffffffffffffffffffffffffff168152602001908152602001600020600088815260200190815260200160002060008201518160000160006101000a81548173ffffffffffffffffffffffffffffffffffffffff021916908373ffffffffffffffffffffffffffffffffffffffff160217905550602082015181600101556040820151816002015560608201518160030160006101000a81548160ff021916908360028111156136e257fe5b02179055506080820151816004015590505050505050505050565b60008060008060008061370e614618565b600360008a73ffffffffffffffffffffffffffffffffffffffff1673ffffffffffffffffffffffffffffffffffffffff168152602001908152602001600020600089815260200190815260200160002060c060405190810160405290816000820160009054906101000a900460ff16600181111561378857fe5b600181111561379357fe5b81526020016000820160019054906101000a900473ffffffffffffffffffffffffffffffffffffffff1673ffffffffffffffffffffffffffffffffffffffff1673ffffffffffffffffffffffffffffffffffffffff16815260200160018201548152602001600282015481526020016003820160009054906101000a900460ff16600281111561381f57fe5b600281111561382a57fe5b815260200160048201548152505090508060000151600181111561384a57fe5b8160200151826040015183606001518460800151600281111561386957fe5b8560a00151965096509650965096509650509295509295509295565b601b5481565b60008061389661467b565b600460008673ffffffffffffffffffffffffffffffffffffffff1673ffffffffffffffffffffffffffffffffffffffff16815260200190815260200160002060008581526020019081526020016000206040805190810160405290816000820160009054906101000a900473ffffffffffffffffffffffffffffffffffffffff1673ffffffffffffffffffffffffffffffffffffffff1673ffffffffffffffffffffffffffffffffffffffff16815260200160018201548152505090508060000151816020015192509250509250929050565b6000809054906101000a900473ffffffffffffffffffffffffffffffffffffffff1673ffffffffffffffffffffffffffffffffffffffff163373ffffffffffffffffffffffffffffffffffffffff161415156139c457600080fd5b80600760008473ffffffffffffffffffffffffffffffffffffffff1673ffffffffffffffffffffffffffffffffffffffff168152602001908152602001600020819055505050565b6013602052816000526040600020602052806000526040600020600091509150505481565b6000809054906101000a900473ffffffffffffffffffffffffffffffffffffffff1673ffffffffffffffffffffffffffffffffffffffff163373ffffffffffffffffffffffffffffffffffffffff16141515613a8c57600080fd5b80601860008473ffffffffffffffffffffffffffffffffffffffff1673ffffffffffffffffffffffffffffffffffffffff168152602001908152602001600020819055505050565b6000809054906101000a900473ffffffffffffffffffffffffffffffffffffffff1673ffffffffffffffffffffffffffffffffffffffff163373ffffffffffffffffffffffffffffffffffffffff16141515613b2f57600080fd5b80601b8190555050565b6000809054906101000a900473ffffffffffffffffffffffffffffffffffffffff1673ffffffffffffffffffffffffffffffffffffffff163373ffffffffffffffffffffffffffffffffffffffff16141515613b9457600080fd5b80600e60008473ffffffffffffffffffffffffffffffffffffffff1673ffffffffffffffffffffffffffffffffffffffff168152602001908152602001600020819055505050565b6000809054906101000a900473ffffffffffffffffffffffffffffffffffffffff1681565b600d602052816000526040600020602052806000526040600020600091509150508060000160009054906101000a900473ffffffffffffffffffffffffffffffffffffffff16908060010154908060020154908060030160009054906101000a900460ff16908060040154905085565b60066020528060005260406000206000915090505481565b6000809054906101000a900473ffffffffffffffffffffffffffffffffffffffff1673ffffffffffffffffffffffffffffffffffffffff163373ffffffffffffffffffffffffffffffffffffffff16141515613ce457600080fd5b80601a8190555050565b60196020528060005260406000206000915090505481565b6000809054906101000a900473ffffffffffffffffffffffffffffffffffffffff1673ffffffffffffffffffffffffffffffffffffffff163373ffffffffffffffffffffffffffffffffffffffff16141515613d6157600080fd5b80600860008473ffffffffffffffffffffffffffffffffffffffff1673ffffffffffffffffffffffffffffffffffffffff168152602001908152602001600020819055505050565b6000809054906101000a900473ffffffffffffffffffffffffffffffffffffffff1673ffffffffffffffffffffffffffffffffffffffff163373ffffffffffffffffffffffffffffffffffffffff16141515613e0457600080fd5b60a060405190810160405280866001811115613e1c57fe5b6001811115613e2757fe5b8152602001858152602001848152602001836002811115613e4457fe5b6002811115613e4f57fe5b815260200182815250600b60008a73ffffffffffffffffffffffffffffffffffffffff1673ffffffffffffffffffffffffffffffffffffffff16815260200190815260200160002060008973ffffffffffffffffffffffffffffffffffffffff1673ffffffffffffffffffffffffffffffffffffffff168152602001908152602001600020600088815260200190815260200160002060008201518160000160006101000a81548160ff02191690836001811115613f0957fe5b0217905550602082015181600101556040820151816002015560608201518160030160006101000a81548160ff02191690836002811115613f4657fe5b0217905550608082015181600401559050505050505050505050565b6000806000806000613f726146ab565b600b60008a73ffffffffffffffffffffffffffffffffffffffff1673ffffffffffffffffffffffffffffffffffffffff16815260200190815260200160002060008973ffffffffffffffffffffffffffffffffffffffff1673ffffffffffffffffffffffffffffffffffffffff168152602001908152602001600020600088815260200190815260200160002060a060405190810160405290816000820160009054906101000a900460ff16600181111561402957fe5b600181111561403457fe5b815260200160018201548152602001600282015481526020016003820160009054906101000a900460ff16600281111561406a57fe5b600281111561407557fe5b815260200160048201548152505090508060000151600181111561409557fe5b81602001518260400151836060015160028111156140af57fe5b84608001519550955095509550955050939792965093509350565b6000809054906101000a900473ffffffffffffffffffffffffffffffffffffffff1673ffffffffffffffffffffffffffffffffffffffff163373ffffffffffffffffffffffffffffffffffffffff1614151561412557600080fd5b80601d8190555050565b6000809054906101000a900473ffffffffffffffffffffffffffffffffffffffff1673ffffffffffffffffffffffffffffffffffffffff163373ffffffffffffffffffffffffffffffffffffffff1614151561418a57600080fd5b80600560008473ffffffffffffffffffffffffffffffffffffffff1673ffffffffffffffffffffffffffffffffffffffff168152602001908152602001600020819055506141d7826144b2565b5050565b601a5481565b600160009054906101000a900473ffffffffffffffffffffffffffffffffffffffff1681565b600b60205282600052604060002060205281600052604060002060205280600052604060002060009250925050508060000160009054906101000a900460ff16908060010154908060020154908060030160009054906101000a900460ff16908060040154905085565b60076020528060005260406000206000915090505481565b602160009054906101000a900473ffffffffffffffffffffffffffffffffffffffff1681565b6000809054906101000a900473ffffffffffffffffffffffffffffffffffffffff1673ffffffffffffffffffffffffffffffffffffffff163373ffffffffffffffffffffffffffffffffffffffff1614151561430a57600080fd5b80600160006101000a81548173ffffffffffffffffffffffffffffffffffffffff021916908373ffffffffffffffffffffffffffffffffffffffff16021790555050565b6000809054906101000a900473ffffffffffffffffffffffffffffffffffffffff1673ffffffffffffffffffffffffffffffffffffffff163373ffffffffffffffffffffffffffffffffffffffff161415156143a957600080fd5b8060028111156143b557fe5b600d60008573ffffffffffffffffffffffffffffffffffffffff1673ffffffffffffffffffffffffffffffffffffffff168152602001908152602001600020600084815260200190815260200160002060030160006101000a81548160ff0219169083600281111561442357fe5b0217905550505050565b600a602052816000526040600020602052806000526040600020600091509150505481565b60056020528060005260406000206000915090505481565b60096020528060005260406000206000915090505481565b60166020528060005260406000206000915090505481565b60086020528060005260406000206000915090505481565b601060008273ffffffffffffffffffffffffffffffffffffffff1673ffffffffffffffffffffffffffffffffffffffff16815260200190815260200160002060009054906101000a900460ff1615156145c4576001601060008373ffffffffffffffffffffffffffffffffffffffff1673ffffffffffffffffffffffffffffffffffffffff16815260200190815260200160002060006101000a81548160ff02191690831515021790555060118190806001815401808255809150509060018203906000526020600020016000909192909190916101000a81548173ffffffffffffffffffffffffffffffffffffffff021916908373ffffffffffffffffffffffffffffffffffffffff160217905550505b50565b60a060405190810160405280600073ffffffffffffffffffffffffffffffffffffffff16815260200160008152602001600081526020016000600281111561460b57fe5b8152602001600081525090565b60c0604051908101604052806000600181111561463157fe5b8152602001600073ffffffffffffffffffffffffffffffffffffffff16815260200160008152602001600081526020016000600281111561466e57fe5b8152602001600081525090565b6040805190810160405280600073ffffffffffffffffffffffffffffffffffffffff168152602001600081525090565b60a060405190810160405280600060018111156146c457fe5b81526020016000815260200160008152602001600060028111156146e457fe5b81526020016000815250905600a165627a7a72305820fa7ca3e0f4508bcf08df6ec728e7e65a58d0f90fde49211a334738f3701638920029",
  "source": "pragma solidity 0.4.24;\n\ncontract StoreContract {\n    string public constant version = \"0722\";\n\n    // --- Constructor & Owner ---\n    address public _owner;\n    address public newOwner;\n\n    modifier onlyOwner {\n        require(msg.sender == _owner);\n        _;\n    }\n\n    modifier onlyNewOwner {\n        require(msg.sender == newOwner);\n        _;\n    }\n\n    constructor() public {\n        _owner = msg.sender;\n    }\n\n    function nextOwner(address _newOwner) public onlyOwner {\n        newOwner = _newOwner;\n    }\n\n    function changeOwner() public onlyNewOwner {\n        _owner = newOwner;\n        newOwner = address(0);\n    }\n\n    // --- Total history ---\n    enum Action { Staking, Unstaking }\n    enum State { Unknown, Transferred, Canceled }\n\n    struct Record {\n        Action action;\n        address cn;\n        uint time;\n        uint amount;\n        State state;\n        uint due;\n    }\n\n    mapping(address => uint) public historyCount;\n    mapping(address => mapping(uint => Record)) public history;\n\n    struct RecordIdx {\n        address user;\n        uint idx;\n    }\n\n    mapping(address => mapping(uint => RecordIdx)) public unstakingMap;\n\n    mapping(address => uint) public deposit;  // Token\n\n    mapping(address => uint) public totalIn;  // Klay\n    mapping(address => uint) public totalOut;  // Klay\n\n    mapping(address => uint) public sTotalIn;  // Token\n    mapping(address => uint) public sTotalOut;  // Token\n\t\n    struct SubRecord {\n        Action action;\n        uint time;\n        uint amount;\n        State state;\n        uint due;\n    }\n\n    mapping(address => mapping(address => uint)) public subHistoryCount;\n    mapping(address => mapping(address => mapping(uint => SubRecord))) public subHistory;\n\n    struct Unstaking {\n        address user;\n        uint amount;  // Klay\n        uint due;\n        State state;\n        uint idx;  // connect to history\n    }\n\n    mapping(address => uint) public lastUid;\n    mapping(address => mapping(uint => Unstaking)) public unstakingList;\n\n    mapping(address => uint) public pending;  // Klay\n    uint public totalPending;  // Klay\n\n    mapping(address => bool) public usedUser;\n    address[] public usedUserList;\n\n\tmapping(address => mapping(address => uint)) public extraAddrAddrInt1;\n\tmapping(address => mapping(address => uint)) public extraAddrAddrInt2;\n\tmapping(address => mapping(address => uint)) public extraAddrAddrInt3;\n\tmapping(address => mapping(address => uint)) public extraAddrAddrInt4;\n\tmapping(address => uint) public extraAddrIntMap1;\n\tmapping(address => uint) public extraAddrIntMap2;\n\tmapping(address => uint) public extraAddrIntMap3;\n\tmapping(address => uint) public extraAddrIntMap4;\n\tuint public extraInt1;\n\tuint public extraInt2;\n\tuint public extraInt3;\n\tuint public extraInt4;\n\taddress public extraAddr1;\n\taddress public extraAddr2;\n\taddress public extraAddr3;\n\taddress public extraAddr4;\n\t\n    // --- Math ---\n    function add(uint a, uint b) private pure returns (uint) {\n        require(a <= uint(-1) - b);\n        return a + b;\n    }\n\n    function sub(uint a, uint b) private pure returns (uint) {\n        require(a >= b);\n        return a - b;\n    }\n\n    // --- Supersetters ---\n    function setHistoryCount(address user, uint cnt) public onlyOwner {\n        historyCount[user] = cnt;\n    }\n\n    function setHistory(address user, uint idx, uint action, address cn, uint time, uint amount, uint state, uint due) public onlyOwner {\n        history[user][idx] = Record(Action(action), cn, time, amount, State(state), due);\n    }\n\n    function setHistoryState(address user, uint idx, uint state) public onlyOwner {\n        history[user][idx].state = State(state);\n    }\n\n    function setUnstakingMap(address cn, uint uid, address user, uint idx) public onlyOwner {\n        unstakingMap[cn][uid] = RecordIdx(user, idx);\n    }\n\n    function setDeposit(address user, uint tokenAmount) public onlyOwner {\n        deposit[user] = tokenAmount;\n        _addUser(user);\n    }\n\n    function setTotalIn(address user, uint amount) public onlyOwner {\n        totalIn[user] = amount;\n    }\n\n    function setTotalOut(address user, uint amount) public onlyOwner {\n        totalOut[user] = amount;\n    }\n\n    function setSTotalIn(address user, uint tokenAmount) public onlyOwner {\n        sTotalIn[user] = tokenAmount;\n    }\n\n    function setSTotalOut(address user, uint tokenAmount) public onlyOwner {\n        sTotalOut[user] = tokenAmount;\n    }\n\n    function setSubHistoryCount(address cn, address user, uint cnt) public onlyOwner {\n        subHistoryCount[cn][user] = cnt;\n    }\n\n    function setSubHistory(address cn, address user, uint idx, uint action, uint time, uint amount, uint state, uint due) public onlyOwner {\n        subHistory[cn][user][idx] = SubRecord(Action(action), time, amount, State(state), due);\n    }\n\n    function setSubHistoryState(address cn, address user, uint idx, uint state) public onlyOwner {\n        subHistory[cn][user][idx].state = State(state);\n    }\n\n    function setLastUid(address cn, uint uid) public onlyOwner {\n        lastUid[cn] = uid;\n    }\n\n    function setUnstakingList(address cn, uint uid, address user, uint amount, uint due, uint state, uint idx) public onlyOwner {\n        unstakingList[cn][uid] = Unstaking(user, amount, due, State(state), idx);\n    }\n\n    function setUnstakingListState(address cn, uint uid, uint state) public onlyOwner {\n        unstakingList[cn][uid].state = State(state);\n    }\n\n    function setPending(address user, uint amount) public onlyOwner {\n        pending[user] = amount;\n    }\n\n    function setTotalPending(uint amount) public onlyOwner {\n        totalPending = amount;\n    }\n\n    function setExtraAddrAddrInt1(address key1, address key2, uint value) public onlyOwner {\n        extraAddrAddrInt1[key1][key2] = value;\n    }\n\tfunction setExtraAddrAddrInt2(address key1, address key2, uint value) public onlyOwner {\n        extraAddrAddrInt2[key1][key2] = value;\n    }\n\t\n\tfunction setExtraAddrAddrInt3(address key1, address key2, uint value) public onlyOwner {\n        extraAddrAddrInt3[key1][key2] = value;\n    }\n\t\n\tfunction setExtraAddrAddrInt4(address key1, address key2, uint value) public onlyOwner {\n        extraAddrAddrInt4[key1][key2] = value;\n    }\n\t\n    function setExtraAddrIntMap1(address key, uint value) public onlyOwner {\n        extraAddrIntMap1[key] = value;\n    }\n\t\n\tfunction setExtraAddrIntMap2(address key, uint value) public onlyOwner {\n        extraAddrIntMap2[key] = value;\n    }\n\t\n\tfunction setExtraAddrIntMap3(address key, uint value) public onlyOwner {\n        extraAddrIntMap3[key] = value;\n    }\n\t\n\tfunction setExtraAddrIntMap4(address key, uint value) public onlyOwner {\n        extraAddrIntMap4[key] = value;\n    }\n\t\n    function setExtraInt1(uint value) public onlyOwner {\n        extraInt1 = value;\n    }\n\t\n\tfunction setExtraInt2(uint value) public onlyOwner {\n        extraInt2 = value;\n    }\n\t\n\tfunction setExtraInt3(uint value) public onlyOwner {\n        extraInt3 = value;\n    }\n\t\n\tfunction setExtraInt4(uint value) public onlyOwner {\n        extraInt4 = value;\n    }\n\t\n\tfunction setExtraAddress1(address value) public onlyOwner {\n        extraAddr1 = value;\n    }\n\t\n\tfunction setExtraAddress2(address value) public onlyOwner {\n        extraAddr2 = value;\n    }\n\t\n\tfunction setExtraAddress3(address value) public onlyOwner {\n        extraAddr3 = value;\n    }\n\t\n\tfunction setExtraAddress4(address value) public onlyOwner {\n        extraAddr4 = value;\n    }\n\n    // --- Getters ---\n    function getUnstakingMap(address cn, uint uid) public view returns (address, uint){\n        RecordIdx memory rid = unstakingMap[cn][uid];\n        return (rid.user, rid.idx);\n    }\n\n    function getUnstakingList(address cn, uint uid) public view returns (address, uint, uint, uint, uint) {\n        Unstaking memory u = unstakingList[cn][uid];\n        return (u.user, u.amount, u.due, uint(u.state), u.idx);\n    }\n\n    function getHistory(address user, uint idx) public view returns (uint, address, uint, uint, uint, uint) {\n        Record memory r = history[user][idx];\n        return (uint(r.action), r.cn, r.time, r.amount, uint(r.state), r.due);\n    }\n\n    function getSubHistory(address cn, address user, uint idx) public view returns (uint, uint, uint, uint, uint) {\n        SubRecord memory r = subHistory[cn][user][idx];\n        return (uint(r.action), r.time, r.amount, uint(r.state), r.due);\n    }\n\n    function getUserListLength() public view returns (uint){\n        return usedUserList.length;\n    }\n\n    function _addUser(address user) private{\n        if(!usedUser[user]){\n            usedUser[user] = true;\n            usedUserList.push(user);\n        }\n    }\n}\n",
  "sourcePath": "/Users/jeongho/workspace/klip/klaystation-contract/contracts/StoreContract.sol",
  "compiler": {
    "name": "solc",
    "version": "0.4.24+commit.e67f0147.Emscripten.clang"
  },
  "schemaVersion": "3.0.11",
  "updatedAt": "2021-04-28T12:11:02.724Z",
  "devdoc": {
    "methods": {}
  },
  "userdoc": {
    "methods": {}
  }
}