{
  "contractName": "DelegationContract",
  "abi": [
    {
      "constant": true,
      "inputs": [],
      "name": "Store",
      "outputs": [
        {
          "name": "",
          "type": "address"
        }
      ],
      "payable": false,
      "stateMutability": "view",
      "type": "function"
    },
    {
      "constant": true,
      "inputs": [],
      "name": "version",
      "outputs": [
        {
          "name": "",
          "type": "string"
        }
      ],
      "payable": false,
      "stateMutability": "view",
      "type": "function"
    },
    {
      "constant": true,
      "inputs": [],
      "name": "newDelegation",
      "outputs": [
        {
          "name": "",
          "type": "address"
        }
      ],
      "payable": false,
      "stateMutability": "view",
      "type": "function"
    },
    {
      "constant": true,
      "inputs": [],
      "name": "SKlay",
      "outputs": [
        {
          "name": "",
          "type": "address"
        }
      ],
      "payable": false,
      "stateMutability": "view",
      "type": "function"
    },
    {
      "constant": true,
      "inputs": [],
      "name": "state",
      "outputs": [
        {
          "name": "",
          "type": "uint8"
        }
      ],
      "payable": false,
      "stateMutability": "view",
      "type": "function"
    },
    {
      "constant": true,
      "inputs": [],
      "name": "Proxy",
      "outputs": [
        {
          "name": "",
          "type": "address"
        }
      ],
      "payable": false,
      "stateMutability": "view",
      "type": "function"
    },
    {
      "inputs": [
        {
          "name": "_proxy",
          "type": "address"
        },
        {
          "name": "_sklay",
          "type": "address"
        },
        {
          "name": "_store",
          "type": "address"
        }
      ],
      "payable": false,
      "stateMutability": "nonpayable",
      "type": "constructor"
    },
    {
      "payable": false,
      "stateMutability": "nonpayable",
      "type": "fallback"
    },
    {
      "anonymous": false,
      "inputs": [
        {
          "indexed": false,
          "name": "user",
          "type": "address"
        },
        {
          "indexed": false,
          "name": "sklay",
          "type": "uint256"
        }
      ],
      "name": "Deposit",
      "type": "event"
    },
    {
      "anonymous": false,
      "inputs": [
        {
          "indexed": false,
          "name": "user",
          "type": "address"
        },
        {
          "indexed": false,
          "name": "sklay",
          "type": "uint256"
        }
      ],
      "name": "Withdraw",
      "type": "event"
    },
    {
      "anonymous": false,
      "inputs": [
        {
          "indexed": false,
          "name": "user",
          "type": "address"
        },
        {
          "indexed": false,
          "name": "amount",
          "type": "uint256"
        },
        {
          "indexed": false,
          "name": "sklay",
          "type": "uint256"
        }
      ],
      "name": "Stake",
      "type": "event"
    },
    {
      "anonymous": false,
      "inputs": [
        {
          "indexed": false,
          "name": "user",
          "type": "address"
        },
        {
          "indexed": false,
          "name": "amount",
          "type": "uint256"
        },
        {
          "indexed": false,
          "name": "sklay",
          "type": "uint256"
        },
        {
          "indexed": false,
          "name": "due",
          "type": "uint256"
        },
        {
          "indexed": false,
          "name": "uid",
          "type": "uint256"
        }
      ],
      "name": "Unstake",
      "type": "event"
    },
    {
      "anonymous": false,
      "inputs": [
        {
          "indexed": false,
          "name": "user",
          "type": "address"
        },
        {
          "indexed": false,
          "name": "amount",
          "type": "uint256"
        },
        {
          "indexed": false,
          "name": "uid",
          "type": "uint256"
        }
      ],
      "name": "SuccessClaim",
      "type": "event"
    },
    {
      "anonymous": false,
      "inputs": [
        {
          "indexed": false,
          "name": "user",
          "type": "address"
        },
        {
          "indexed": false,
          "name": "amount",
          "type": "uint256"
        },
        {
          "indexed": false,
          "name": "sklay",
          "type": "uint256"
        },
        {
          "indexed": false,
          "name": "uid",
          "type": "uint256"
        }
      ],
      "name": "FailClaim",
      "type": "event"
    },
    {
      "anonymous": false,
      "inputs": [
        {
          "indexed": false,
          "name": "user",
          "type": "address"
        },
        {
          "indexed": false,
          "name": "deposit",
          "type": "uint256"
        },
        {
          "indexed": false,
          "name": "pending",
          "type": "uint256"
        },
        {
          "indexed": false,
          "name": "totalIn",
          "type": "uint256"
        },
        {
          "indexed": false,
          "name": "totalOut",
          "type": "uint256"
        }
      ],
      "name": "UserStat",
      "type": "event"
    },
    {
      "anonymous": false,
      "inputs": [
        {
          "indexed": false,
          "name": "totalSupply",
          "type": "uint256"
        },
        {
          "indexed": false,
          "name": "staking",
          "type": "uint256"
        }
      ],
      "name": "PoolStat",
      "type": "event"
    },
    {
      "constant": false,
      "inputs": [
        {
          "name": "_delegation",
          "type": "address"
        },
        {
          "name": "_init",
          "type": "address"
        }
      ],
      "name": "startDelegation",
      "outputs": [],
      "payable": false,
      "stateMutability": "nonpayable",
      "type": "function"
    },
    {
      "constant": false,
      "inputs": [
        {
          "name": "_delegation",
          "type": "address"
        }
      ],
      "name": "nextDelegation",
      "outputs": [],
      "payable": false,
      "stateMutability": "nonpayable",
      "type": "function"
    },
    {
      "constant": false,
      "inputs": [],
      "name": "migrateDelegation",
      "outputs": [],
      "payable": false,
      "stateMutability": "nonpayable",
      "type": "function"
    },
    {
      "constant": false,
      "inputs": [
        {
          "name": "_proxy",
          "type": "address"
        }
      ],
      "name": "setProxy",
      "outputs": [],
      "payable": false,
      "stateMutability": "nonpayable",
      "type": "function"
    },
    {
      "constant": false,
      "inputs": [
        {
          "name": "_to",
          "type": "address"
        },
        {
          "name": "_value",
          "type": "uint256"
        },
        {
          "name": "_data",
          "type": "bytes"
        }
      ],
      "name": "execute",
      "outputs": [],
      "payable": false,
      "stateMutability": "nonpayable",
      "type": "function"
    },
    {
      "constant": false,
      "inputs": [
        {
          "name": "sklay",
          "type": "uint256"
        }
      ],
      "name": "depositSKlay",
      "outputs": [],
      "payable": false,
      "stateMutability": "nonpayable",
      "type": "function"
    },
    {
      "constant": false,
      "inputs": [
        {
          "name": "sklay",
          "type": "uint256"
        }
      ],
      "name": "withdrawSKlay",
      "outputs": [],
      "payable": false,
      "stateMutability": "nonpayable",
      "type": "function"
    },
    {
      "constant": false,
      "inputs": [
        {
          "name": "to",
          "type": "address"
        }
      ],
      "name": "stakeKlay",
      "outputs": [],
      "payable": true,
      "stateMutability": "payable",
      "type": "function"
    },
    {
      "constant": false,
      "inputs": [
        {
          "name": "to",
          "type": "address"
        },
        {
          "name": "klay",
          "type": "uint256"
        }
      ],
      "name": "unstakeKlay",
      "outputs": [],
      "payable": false,
      "stateMutability": "nonpayable",
      "type": "function"
    },
    {
      "constant": false,
      "inputs": [
        {
          "name": "to",
          "type": "address"
        },
        {
          "name": "sklay",
          "type": "uint256"
        }
      ],
      "name": "unstakeKlayWithSKlay",
      "outputs": [],
      "payable": false,
      "stateMutability": "nonpayable",
      "type": "function"
    },
    {
      "constant": false,
      "inputs": [
        {
          "name": "uid",
          "type": "uint256"
        }
      ],
      "name": "claimUnstakingKlay",
      "outputs": [],
      "payable": false,
      "stateMutability": "nonpayable",
      "type": "function"
    },
    {
      "constant": false,
      "inputs": [],
      "name": "refreshStaking",
      "outputs": [],
      "payable": false,
      "stateMutability": "nonpayable",
      "type": "function"
    },
    {
      "constant": true,
      "inputs": [
        {
          "name": "user",
          "type": "address"
        }
      ],
      "name": "getUserStat",
      "outputs": [
        {
          "name": "",
          "type": "uint256"
        },
        {
          "name": "",
          "type": "uint256"
        },
        {
          "name": "",
          "type": "uint256"
        },
        {
          "name": "",
          "type": "uint256"
        }
      ],
      "payable": false,
      "stateMutability": "view",
      "type": "function"
    },
    {
      "constant": true,
      "inputs": [],
      "name": "getPoolStat",
      "outputs": [
        {
          "name": "",
          "type": "uint256"
        },
        {
          "name": "",
          "type": "uint256"
        }
      ],
      "payable": false,
      "stateMutability": "view",
      "type": "function"
    },
    {
      "constant": true,
      "inputs": [],
      "name": "getRewardStat",
      "outputs": [
        {
          "name": "reward",
          "type": "uint256"
        },
        {
          "name": "commission",
          "type": "uint256"
        },
        {
          "name": "commissionRate",
          "type": "uint256"
        },
        {
          "name": "commissionDecimal",
          "type": "uint256"
        }
      ],
      "payable": false,
      "stateMutability": "view",
      "type": "function"
    },
    {
      "constant": true,
      "inputs": [],
      "name": "getCnStakingAddress",
      "outputs": [
        {
          "name": "",
          "type": "address"
        }
      ],
      "payable": false,
      "stateMutability": "view",
      "type": "function"
    }
  ],
  "bytecode": "0x60806040526000600360146101000a81548160ff021916908360028111156200002457fe5b02179055503480156200003657600080fd5b50604051606080620091c8833981018060405281019080805190602001909291908051906020019092919080519060200190929190505050600073ffffffffffffffffffffffffffffffffffffffff168373ffffffffffffffffffffffffffffffffffffffff1614151515620000ab57600080fd5b600073ffffffffffffffffffffffffffffffffffffffff168273ffffffffffffffffffffffffffffffffffffffff1614151515620000e857600080fd5b600073ffffffffffffffffffffffffffffffffffffffff168173ffffffffffffffffffffffffffffffffffffffff16141515156200012557600080fd5b826000806101000a81548173ffffffffffffffffffffffffffffffffffffffff021916908373ffffffffffffffffffffffffffffffffffffffff16021790555081600160006101000a81548173ffffffffffffffffffffffffffffffffffffffff021916908373ffffffffffffffffffffffffffffffffffffffff16021790555080600260006101000a81548173ffffffffffffffffffffffffffffffffffffffff021916908373ffffffffffffffffffffffffffffffffffffffff160217905550505050618fce80620001fa6000396000f300608060405260043610610128576000357c0100000000000000000000000000000000000000000000000000000000900463ffffffff16806306a7f327146101375780631b40dbad14610184578063238be93f146101b157806342e90c33146101fe57806350f0b8b61461025557806354fd4d501461029557806357495af414610325578063682ac2c41461033c578063705353661461036e5780638b66c5f2146103da5780638bf2c6ae1461041d5780638e6d49021461047457806397107d6d146104cb578063a16780661461050e578063a395fbef1461053b578063a58166221461059e578063ae2519b4146105f5578063b61d27f61461062b578063b6f07e2d146106be578063c19d93fb146106eb578063f62f7d1f14610724578063fd782de51461073b575b34801561013457600080fd5b50005b34801561014357600080fd5b50610182600480360381019080803573ffffffffffffffffffffffffffffffffffffffff16906020019092919080359060200190929190505050610792565b005b34801561019057600080fd5b506101af60048036038101908080359060200190929190505050610ff0565b005b3480156101bd57600080fd5b506101fc600480360381019080803573ffffffffffffffffffffffffffffffffffffffff16906020019092919080359060200190929190505050611511565b005b34801561020a57600080fd5b50610213611e45565b604051808273ffffffffffffffffffffffffffffffffffffffff1673ffffffffffffffffffffffffffffffffffffffff16815260200191505060405180910390f35b34801561026157600080fd5b5061026a611e6b565b6040518085815260200184815260200183815260200182815260200194505050505060405180910390f35b3480156102a157600080fd5b506102aa611f65565b6040518080602001828103825283818151815260200191508051906020019080838360005b838110156102ea5780820151818401526020810190506102cf565b50505050905090810190601f1680156103175780820380516001836020036101000a031916815260200191505b509250505060405180910390f35b34801561033157600080fd5b5061033a611f9e565b005b34801561034857600080fd5b50610351612338565b604051808381526020018281526020019250505060405180910390f35b34801561037a57600080fd5b506103af600480360381019080803573ffffffffffffffffffffffffffffffffffffffff16906020019092919050505061268a565b6040518085815260200184815260200183815260200182815260200194505050505060405180910390f35b3480156103e657600080fd5b5061041b600480360381019080803573ffffffffffffffffffffffffffffffffffffffff169060200190929190505050612a95565b005b34801561042957600080fd5b50610432612b34565b604051808273ffffffffffffffffffffffffffffffffffffffff1673ffffffffffffffffffffffffffffffffffffffff16815260200191505060405180910390f35b34801561048057600080fd5b50610489612b5a565b604051808273ffffffffffffffffffffffffffffffffffffffff1673ffffffffffffffffffffffffffffffffffffffff16815260200191505060405180910390f35b3480156104d757600080fd5b5061050c600480360381019080803573ffffffffffffffffffffffffffffffffffffffff169060200190929190505050612b80565b005b34801561051a57600080fd5b5061053960048036038101908080359060200190929190505050612c1e565b005b34801561054757600080fd5b5061059c600480360381019080803573ffffffffffffffffffffffffffffffffffffffff169060200190929190803573ffffffffffffffffffffffffffffffffffffffff16906020019092919050505061313f565b005b3480156105aa57600080fd5b506105b3613a0d565b604051808273ffffffffffffffffffffffffffffffffffffffff1673ffffffffffffffffffffffffffffffffffffffff16815260200191505060405180910390f35b610629600480360381019080803573ffffffffffffffffffffffffffffffffffffffff169060200190929190505050613ad4565b005b34801561063757600080fd5b506106bc600480360381019080803573ffffffffffffffffffffffffffffffffffffffff16906020019092919080359060200190929190803590602001908201803590602001908080601f0160208091040260200160405190810160405280939291908181526020018383808284378201915050505050509192919290505050614216565b005b3480156106ca57600080fd5b506106e96004803603810190808035906020019092919050505061430f565b005b3480156106f757600080fd5b50610700614db9565b6040518082600281111561071057fe5b60ff16815260200191505060405180910390f35b34801561073057600080fd5b50610739614dcc565b005b34801561074757600080fd5b50610750614ea7565b604051808273ffffffffffffffffffffffffffffffffffffffff1673ffffffffffffffffffffffffffffffffffffffff16815260200191505060405180910390f35b6000806000806000600160028111156107a757fe5b600360149054906101000a900460ff1660028111156107c257fe5b1415156107ce57600080fd5b600086141515156107de57600080fd5b600073ffffffffffffffffffffffffffffffffffffffff168773ffffffffffffffffffffffffffffffffffffffff161415610817573396505b6000809054906101000a900473ffffffffffffffffffffffffffffffffffffffff1673ffffffffffffffffffffffffffffffffffffffff1663c72507e96040518163ffffffff167c0100000000000000000000000000000000000000000000000000000000028152600401600060405180830381600087803b15801561089c57600080fd5b505af11580156108b0573d6000803e3d6000fd5b50505050610a3d6000809054906101000a900473ffffffffffffffffffffffffffffffffffffffff1673ffffffffffffffffffffffffffffffffffffffff16634cf088d96040518163ffffffff167c0100000000000000000000000000000000000000000000000000000000028152600401602060405180830381600087803b15801561093c57600080fd5b505af1158015610950573d6000803e3d6000fd5b505050506040513d602081101561096657600080fd5b8101908080519060200190929190505050600260009054906101000a900473ffffffffffffffffffffffffffffffffffffffff1673ffffffffffffffffffffffffffffffffffffffff16633f90916a6040518163ffffffff167c0100000000000000000000000000000000000000000000000000000000028152600401602060405180830381600087803b1580156109fd57600080fd5b505af1158015610a11573d6000803e3d6000fd5b505050506040513d6020811015610a2757600080fd5b8101908080519060200190929190505050614ecc565b9450600260009054906101000a900473ffffffffffffffffffffffffffffffffffffffff1673ffffffffffffffffffffffffffffffffffffffff1663f340fa01336040518263ffffffff167c0100000000000000000000000000000000000000000000000000000000028152600401808273ffffffffffffffffffffffffffffffffffffffff1673ffffffffffffffffffffffffffffffffffffffff168152602001915050602060405180830381600087803b158015610afc57600080fd5b505af1158015610b10573d6000803e3d6000fd5b505050506040513d6020811015610b2657600080fd5b810190808051906020019092919050505093507fffffffffffffffffffffffffffffffffffffffffffffffffffffffffffffffff861415610b65578395505b838611151515610b7457600080fd5b610c47610b818787614ee8565b600160009054906101000a900473ffffffffffffffffffffffffffffffffffffffff1673ffffffffffffffffffffffffffffffffffffffff166318160ddd6040518163ffffffff167c0100000000000000000000000000000000000000000000000000000000028152600401602060405180830381600087803b158015610c0757600080fd5b505af1158015610c1b573d6000803e3d6000fd5b505050506040513d6020811015610c3157600080fd5b8101908080519060200190929190505050614f39565b925060008314151515610c5957600080fd5b6000809054906101000a900473ffffffffffffffffffffffffffffffffffffffff1673ffffffffffffffffffffffffffffffffffffffff16637818097c88856040518363ffffffff167c0100000000000000000000000000000000000000000000000000000000028152600401808373ffffffffffffffffffffffffffffffffffffffff1673ffffffffffffffffffffffffffffffffffffffff1681526020018281526020019250505060a060405180830381600087803b158015610d1d57600080fd5b505af1158015610d31573d6000803e3d6000fd5b505050506040513d60a0811015610d4757600080fd5b81019080805190602001909291908051906020019092919080519060200190929190805190602001909291908051906020019092919050505050935050509150600160009054906101000a900473ffffffffffffffffffffffffffffffffffffffff1673ffffffffffffffffffffffffffffffffffffffff16639dc29fac600260009054906101000a900473ffffffffffffffffffffffffffffffffffffffff16886040518363ffffffff167c0100000000000000000000000000000000000000000000000000000000028152600401808373ffffffffffffffffffffffffffffffffffffffff1673ffffffffffffffffffffffffffffffffffffffff16815260200182815260200192505050600060405180830381600087803b158015610e6e57600080fd5b505af1158015610e82573d6000803e3d6000fd5b50505050610f536000809054906101000a900473ffffffffffffffffffffffffffffffffffffffff1673ffffffffffffffffffffffffffffffffffffffff16633b80c59b6040518163ffffffff167c0100000000000000000000000000000000000000000000000000000000028152600401602060405180830381600087803b158015610f0e57600080fd5b505af1158015610f22573d6000803e3d6000fd5b505050506040513d6020811015610f3857600080fd5b81019080805190602001909291905050503385898587614f5e565b7f05b744e3e9358bc00ba3cc0c6606a4d6536134dba00b2d2ee4b5de169acd64273384888486604051808673ffffffffffffffffffffffffffffffffffffffff1673ffffffffffffffffffffffffffffffffffffffff1681526020018581526020018481526020018381526020018281526020019550505050505060405180910390a1610fdf33616063565b610fe76164db565b50505050505050565b6000806001600281111561100057fe5b600360149054906101000a900460ff16600281111561101b57fe5b14151561102757600080fd5b6000809054906101000a900473ffffffffffffffffffffffffffffffffffffffff1673ffffffffffffffffffffffffffffffffffffffff1663c72507e96040518163ffffffff167c0100000000000000000000000000000000000000000000000000000000028152600401600060405180830381600087803b1580156110ac57600080fd5b505af11580156110c0573d6000803e3d6000fd5b50505050600160009054906101000a900473ffffffffffffffffffffffffffffffffffffffff1673ffffffffffffffffffffffffffffffffffffffff166323b872dd33600260009054906101000a900473ffffffffffffffffffffffffffffffffffffffff16866040518463ffffffff167c0100000000000000000000000000000000000000000000000000000000028152600401808473ffffffffffffffffffffffffffffffffffffffff1673ffffffffffffffffffffffffffffffffffffffff1681526020018373ffffffffffffffffffffffffffffffffffffffff1673ffffffffffffffffffffffffffffffffffffffff1681526020018281526020019350505050602060405180830381600087803b1580156111df57600080fd5b505af11580156111f3573d6000803e3d6000fd5b505050506040513d602081101561120957600080fd5b8101908080519060200190929190505050151561122557600080fd5b6113ae6000809054906101000a900473ffffffffffffffffffffffffffffffffffffffff1673ffffffffffffffffffffffffffffffffffffffff16634cf088d96040518163ffffffff167c0100000000000000000000000000000000000000000000000000000000028152600401602060405180830381600087803b1580156112ad57600080fd5b505af11580156112c1573d6000803e3d6000fd5b505050506040513d60208110156112d757600080fd5b8101908080519060200190929190505050600260009054906101000a900473ffffffffffffffffffffffffffffffffffffffff1673ffffffffffffffffffffffffffffffffffffffff16633f90916a6040518163ffffffff167c0100000000000000000000000000000000000000000000000000000000028152600401602060405180830381600087803b15801561136e57600080fd5b505af1158015611382573d6000803e3d6000fd5b505050506040513d602081101561139857600080fd5b8101908080519060200190929190505050614ecc565b91506114836113bd8484614ee8565b600160009054906101000a900473ffffffffffffffffffffffffffffffffffffffff1673ffffffffffffffffffffffffffffffffffffffff166318160ddd6040518163ffffffff167c0100000000000000000000000000000000000000000000000000000000028152600401602060405180830381600087803b15801561144357600080fd5b505af1158015611457573d6000803e3d6000fd5b505050506040513d602081101561146d57600080fd5b8101908080519060200190929190505050614f39565b9050611490338483616861565b7fe1fffcc4923d04b559f4d29a8bfc6cda04eb5b0d3c460751c2402c5c5cc9109c3384604051808373ffffffffffffffffffffffffffffffffffffffff1673ffffffffffffffffffffffffffffffffffffffff1681526020018281526020019250505060405180910390a161150433616063565b61150c6164db565b505050565b60008060008060006001600281111561152657fe5b600360149054906101000a900460ff16600281111561154157fe5b14151561154d57600080fd5b6000861415151561155d57600080fd5b600073ffffffffffffffffffffffffffffffffffffffff168773ffffffffffffffffffffffffffffffffffffffff161415611596573396505b6000809054906101000a900473ffffffffffffffffffffffffffffffffffffffff1673ffffffffffffffffffffffffffffffffffffffff1663c72507e96040518163ffffffff167c0100000000000000000000000000000000000000000000000000000000028152600401600060405180830381600087803b15801561161b57600080fd5b505af115801561162f573d6000803e3d6000fd5b505050506117bc6000809054906101000a900473ffffffffffffffffffffffffffffffffffffffff1673ffffffffffffffffffffffffffffffffffffffff16634cf088d96040518163ffffffff167c0100000000000000000000000000000000000000000000000000000000028152600401602060405180830381600087803b1580156116bb57600080fd5b505af11580156116cf573d6000803e3d6000fd5b505050506040513d60208110156116e557600080fd5b8101908080519060200190929190505050600260009054906101000a900473ffffffffffffffffffffffffffffffffffffffff1673ffffffffffffffffffffffffffffffffffffffff16633f90916a6040518163ffffffff167c0100000000000000000000000000000000000000000000000000000000028152600401602060405180830381600087803b15801561177c57600080fd5b505af1158015611790573d6000803e3d6000fd5b505050506040513d60208110156117a657600080fd5b8101908080519060200190929190505050614ecc565b9450600260009054906101000a900473ffffffffffffffffffffffffffffffffffffffff1673ffffffffffffffffffffffffffffffffffffffff1663f340fa01336040518263ffffffff167c0100000000000000000000000000000000000000000000000000000000028152600401808273ffffffffffffffffffffffffffffffffffffffff1673ffffffffffffffffffffffffffffffffffffffff168152602001915050602060405180830381600087803b15801561187b57600080fd5b505af115801561188f573d6000803e3d6000fd5b505050506040513d60208110156118a557600080fd5b810190808051906020019092919050505093508392507fffffffffffffffffffffffffffffffffffffffffffffffffffffffffffffffff861415156119ba576119b76119b187600160009054906101000a900473ffffffffffffffffffffffffffffffffffffffff1673ffffffffffffffffffffffffffffffffffffffff166318160ddd6040518163ffffffff167c0100000000000000000000000000000000000000000000000000000000028152600401602060405180830381600087803b15801561197157600080fd5b505af1158015611985573d6000803e3d6000fd5b505050506040513d602081101561199b57600080fd5b8101908080519060200190929190505050614ee8565b86614f39565b92505b8383111515156119c957600080fd5b611a9c6119d68487614ee8565b600160009054906101000a900473ffffffffffffffffffffffffffffffffffffffff1673ffffffffffffffffffffffffffffffffffffffff166318160ddd6040518163ffffffff167c0100000000000000000000000000000000000000000000000000000000028152600401602060405180830381600087803b158015611a5c57600080fd5b505af1158015611a70573d6000803e3d6000fd5b505050506040513d6020811015611a8657600080fd5b8101908080519060200190929190505050614f39565b955060008614151515611aae57600080fd5b6000809054906101000a900473ffffffffffffffffffffffffffffffffffffffff1673ffffffffffffffffffffffffffffffffffffffff16637818097c88886040518363ffffffff167c0100000000000000000000000000000000000000000000000000000000028152600401808373ffffffffffffffffffffffffffffffffffffffff1673ffffffffffffffffffffffffffffffffffffffff1681526020018281526020019250505060a060405180830381600087803b158015611b7257600080fd5b505af1158015611b86573d6000803e3d6000fd5b505050506040513d60a0811015611b9c57600080fd5b81019080805190602001909291908051906020019092919080519060200190929190805190602001909291908051906020019092919050505050935050509150600160009054906101000a900473ffffffffffffffffffffffffffffffffffffffff1673ffffffffffffffffffffffffffffffffffffffff16639dc29fac600260009054906101000a900473ffffffffffffffffffffffffffffffffffffffff16856040518363ffffffff167c0100000000000000000000000000000000000000000000000000000000028152600401808373ffffffffffffffffffffffffffffffffffffffff1673ffffffffffffffffffffffffffffffffffffffff16815260200182815260200192505050600060405180830381600087803b158015611cc357600080fd5b505af1158015611cd7573d6000803e3d6000fd5b50505050611da86000809054906101000a900473ffffffffffffffffffffffffffffffffffffffff1673ffffffffffffffffffffffffffffffffffffffff16633b80c59b6040518163ffffffff167c0100000000000000000000000000000000000000000000000000000000028152600401602060405180830381600087803b158015611d6357600080fd5b505af1158015611d77573d6000803e3d6000fd5b505050506040513d6020811015611d8d57600080fd5b81019080805190602001909291905050503388868587614f5e565b7f05b744e3e9358bc00ba3cc0c6606a4d6536134dba00b2d2ee4b5de169acd64273387858486604051808673ffffffffffffffffffffffffffffffffffffffff1673ffffffffffffffffffffffffffffffffffffffff1681526020018581526020018481526020018381526020018281526020019550505050505060405180910390a1611e3433616063565b611e3c6164db565b50505050505050565b600260009054906101000a900473ffffffffffffffffffffffffffffffffffffffff1681565b6000806000806000809054906101000a900473ffffffffffffffffffffffffffffffffffffffff1673ffffffffffffffffffffffffffffffffffffffff166350f0b8b66040518163ffffffff167c0100000000000000000000000000000000000000000000000000000000028152600401608060405180830381600087803b158015611ef657600080fd5b505af1158015611f0a573d6000803e3d6000fd5b505050506040513d6080811015611f2057600080fd5b81019080805190602001909291908051906020019092919080519060200190929190805190602001909291905050508094508195508296508397505050505090919293565b6040805190810160405280600481526020017f303732330000000000000000000000000000000000000000000000000000000081525081565b60016002811115611fab57fe5b600360149054906101000a900460ff166002811115611fc657fe5b141515611fd257600080fd5b600360009054906101000a900473ffffffffffffffffffffffffffffffffffffffff1673ffffffffffffffffffffffffffffffffffffffff163373ffffffffffffffffffffffffffffffffffffffff1614151561202e57600080fd5b6002600360146101000a81548160ff0219169083600281111561204d57fe5b0217905550600260009054906101000a900473ffffffffffffffffffffffffffffffffffffffff1673ffffffffffffffffffffffffffffffffffffffff1663eeac0879600360009054906101000a900473ffffffffffffffffffffffffffffffffffffffff166040518263ffffffff167c0100000000000000000000000000000000000000000000000000000000028152600401808273ffffffffffffffffffffffffffffffffffffffff1673ffffffffffffffffffffffffffffffffffffffff168152602001915050600060405180830381600087803b15801561213157600080fd5b505af1158015612145573d6000803e3d6000fd5b50505050600160009054906101000a900473ffffffffffffffffffffffffffffffffffffffff1673ffffffffffffffffffffffffffffffffffffffff1663eeac0879600360009054906101000a900473ffffffffffffffffffffffffffffffffffffffff166040518263ffffffff167c0100000000000000000000000000000000000000000000000000000000028152600401808273ffffffffffffffffffffffffffffffffffffffff1673ffffffffffffffffffffffffffffffffffffffff168152602001915050600060405180830381600087803b15801561222857600080fd5b505af115801561223c573d6000803e3d6000fd5b505050506000809054906101000a900473ffffffffffffffffffffffffffffffffffffffff1673ffffffffffffffffffffffffffffffffffffffff1663e6b3e704600360009054906101000a900473ffffffffffffffffffffffffffffffffffffffff166040518263ffffffff167c0100000000000000000000000000000000000000000000000000000000028152600401808273ffffffffffffffffffffffffffffffffffffffff1673ffffffffffffffffffffffffffffffffffffffff168152602001915050600060405180830381600087803b15801561231e57600080fd5b505af1158015612332573d6000803e3d6000fd5b50505050565b6000806000806000600160009054906101000a900473ffffffffffffffffffffffffffffffffffffffff1673ffffffffffffffffffffffffffffffffffffffff166318160ddd6040518163ffffffff167c0100000000000000000000000000000000000000000000000000000000028152600401602060405180830381600087803b1580156123c657600080fd5b505af11580156123da573d6000803e3d6000fd5b505050506040513d60208110156123f057600080fd5b810190808051906020019092919050505092506000809054906101000a900473ffffffffffffffffffffffffffffffffffffffff1673ffffffffffffffffffffffffffffffffffffffff166350f0b8b66040518163ffffffff167c0100000000000000000000000000000000000000000000000000000000028152600401608060405180830381600087803b15801561248857600080fd5b505af115801561249c573d6000803e3d6000fd5b505050506040513d60808110156124b257600080fd5b810190808051906020019092919080519060200190929190805190602001909291908051906020019092919050505050505091506125af6000809054906101000a900473ffffffffffffffffffffffffffffffffffffffff1673ffffffffffffffffffffffffffffffffffffffff16634cf088d96040518163ffffffff167c0100000000000000000000000000000000000000000000000000000000028152600401602060405180830381600087803b15801561256e57600080fd5b505af1158015612582573d6000803e3d6000fd5b505050506040513d602081101561259857600080fd5b810190808051906020019092919050505083616c20565b905061267b81600260009054906101000a900473ffffffffffffffffffffffffffffffffffffffff1673ffffffffffffffffffffffffffffffffffffffff16633f90916a6040518163ffffffff167c0100000000000000000000000000000000000000000000000000000000028152600401602060405180830381600087803b15801561263b57600080fd5b505af115801561264f573d6000803e3d6000fd5b505050506040513d602081101561266557600080fd5b8101908080519060200190929190505050614ecc565b90508281945094505050509091565b600080600080600080600080600260009054906101000a900473ffffffffffffffffffffffffffffffffffffffff1673ffffffffffffffffffffffffffffffffffffffff1663f340fa018a6040518263ffffffff167c0100000000000000000000000000000000000000000000000000000000028152600401808273ffffffffffffffffffffffffffffffffffffffff1673ffffffffffffffffffffffffffffffffffffffff168152602001915050602060405180830381600087803b15801561275357600080fd5b505af1158015612767573d6000803e3d6000fd5b505050506040513d602081101561277d57600080fd5b81019080805190602001909291905050509350600260009054906101000a900473ffffffffffffffffffffffffffffffffffffffff1673ffffffffffffffffffffffffffffffffffffffff16635eebea208a6040518263ffffffff167c0100000000000000000000000000000000000000000000000000000000028152600401808273ffffffffffffffffffffffffffffffffffffffff1673ffffffffffffffffffffffffffffffffffffffff168152602001915050602060405180830381600087803b15801561284d57600080fd5b505af1158015612861573d6000803e3d6000fd5b505050506040513d602081101561287757600080fd5b81019080805190602001909291905050509250600260009054906101000a900473ffffffffffffffffffffffffffffffffffffffff1673ffffffffffffffffffffffffffffffffffffffff1663b6b4d53c8a6040518263ffffffff167c0100000000000000000000000000000000000000000000000000000000028152600401808273ffffffffffffffffffffffffffffffffffffffff1673ffffffffffffffffffffffffffffffffffffffff168152602001915050602060405180830381600087803b15801561294757600080fd5b505af115801561295b573d6000803e3d6000fd5b505050506040513d602081101561297157600080fd5b81019080805190602001909291905050509150600260009054906101000a900473ffffffffffffffffffffffffffffffffffffffff1673ffffffffffffffffffffffffffffffffffffffff1663e5dbd4268a6040518263ffffffff167c0100000000000000000000000000000000000000000000000000000000028152600401808273ffffffffffffffffffffffffffffffffffffffff1673ffffffffffffffffffffffffffffffffffffffff168152602001915050602060405180830381600087803b158015612a4157600080fd5b505af1158015612a55573d6000803e3d6000fd5b505050506040513d6020811015612a6b57600080fd5b81019080805190602001909291905050509050838383839750975097509750505050509193509193565b6000809054906101000a900473ffffffffffffffffffffffffffffffffffffffff1673ffffffffffffffffffffffffffffffffffffffff163373ffffffffffffffffffffffffffffffffffffffff16141515612af057600080fd5b80600360006101000a81548173ffffffffffffffffffffffffffffffffffffffff021916908373ffffffffffffffffffffffffffffffffffffffff16021790555050565b600360009054906101000a900473ffffffffffffffffffffffffffffffffffffffff1681565b600160009054906101000a900473ffffffffffffffffffffffffffffffffffffffff1681565b6000809054906101000a900473ffffffffffffffffffffffffffffffffffffffff1673ffffffffffffffffffffffffffffffffffffffff163373ffffffffffffffffffffffffffffffffffffffff16141515612bdb57600080fd5b806000806101000a81548173ffffffffffffffffffffffffffffffffffffffff021916908373ffffffffffffffffffffffffffffffffffffffff16021790555050565b60008060016002811115612c2e57fe5b600360149054906101000a900460ff166002811115612c4957fe5b141515612c5557600080fd5b6000809054906101000a900473ffffffffffffffffffffffffffffffffffffffff1673ffffffffffffffffffffffffffffffffffffffff1663c72507e96040518163ffffffff167c0100000000000000000000000000000000000000000000000000000000028152600401600060405180830381600087803b158015612cda57600080fd5b505af1158015612cee573d6000803e3d6000fd5b50505050600160009054906101000a900473ffffffffffffffffffffffffffffffffffffffff1673ffffffffffffffffffffffffffffffffffffffff166323b872dd600260009054906101000a900473ffffffffffffffffffffffffffffffffffffffff1633866040518463ffffffff167c0100000000000000000000000000000000000000000000000000000000028152600401808473ffffffffffffffffffffffffffffffffffffffff1673ffffffffffffffffffffffffffffffffffffffff1681526020018373ffffffffffffffffffffffffffffffffffffffff1673ffffffffffffffffffffffffffffffffffffffff1681526020018281526020019350505050602060405180830381600087803b158015612e0d57600080fd5b505af1158015612e21573d6000803e3d6000fd5b505050506040513d6020811015612e3757600080fd5b81019080805190602001909291905050501515612e5357600080fd5b612fdc6000809054906101000a900473ffffffffffffffffffffffffffffffffffffffff1673ffffffffffffffffffffffffffffffffffffffff16634cf088d96040518163ffffffff167c0100000000000000000000000000000000000000000000000000000000028152600401602060405180830381600087803b158015612edb57600080fd5b505af1158015612eef573d6000803e3d6000fd5b505050506040513d6020811015612f0557600080fd5b8101908080519060200190929190505050600260009054906101000a900473ffffffffffffffffffffffffffffffffffffffff1673ffffffffffffffffffffffffffffffffffffffff16633f90916a6040518163ffffffff167c0100000000000000000000000000000000000000000000000000000000028152600401602060405180830381600087803b158015612f9c57600080fd5b505af1158015612fb0573d6000803e3d6000fd5b505050506040513d6020811015612fc657600080fd5b8101908080519060200190929190505050614ecc565b91506130b1612feb8484614ee8565b600160009054906101000a900473ffffffffffffffffffffffffffffffffffffffff1673ffffffffffffffffffffffffffffffffffffffff166318160ddd6040518163ffffffff167c0100000000000000000000000000000000000000000000000000000000028152600401602060405180830381600087803b15801561307157600080fd5b505af1158015613085573d6000803e3d6000fd5b505050506040513d602081101561309b57600080fd5b8101908080519060200190929190505050614f39565b90506130be338483616c5e565b7f884edad9ce6fa2440d8a54cc123490eb96d2768479d49ff9c7366125a94243643384604051808373ffffffffffffffffffffffffffffffffffffffff1673ffffffffffffffffffffffffffffffffffffffff1681526020018281526020019250505060405180910390a161313233616063565b61313a6164db565b505050565b600080600281111561314d57fe5b600360149054906101000a900460ff16600281111561316857fe5b14151561317457600080fd5b6000809054906101000a900473ffffffffffffffffffffffffffffffffffffffff1673ffffffffffffffffffffffffffffffffffffffff163373ffffffffffffffffffffffffffffffffffffffff161415156131cf57600080fd5b6001600360146101000a81548160ff021916908360028111156131ee57fe5b0217905550600073ffffffffffffffffffffffffffffffffffffffff168373ffffffffffffffffffffffffffffffffffffffff161415156132e157600073ffffffffffffffffffffffffffffffffffffffff168273ffffffffffffffffffffffffffffffffffffffff1614151561326457600080fd5b8273ffffffffffffffffffffffffffffffffffffffff166357495af46040518163ffffffff167c0100000000000000000000000000000000000000000000000000000000028152600401600060405180830381600087803b1580156132c857600080fd5b505af11580156132dc573d6000803e3d6000fd5b505050505b600260009054906101000a900473ffffffffffffffffffffffffffffffffffffffff1673ffffffffffffffffffffffffffffffffffffffff166362a094776040518163ffffffff167c0100000000000000000000000000000000000000000000000000000000028152600401600060405180830381600087803b15801561336757600080fd5b505af115801561337b573d6000803e3d6000fd5b50505050600160009054906101000a900473ffffffffffffffffffffffffffffffffffffffff1673ffffffffffffffffffffffffffffffffffffffff166362a094776040518163ffffffff167c0100000000000000000000000000000000000000000000000000000000028152600401600060405180830381600087803b15801561340557600080fd5b505af1158015613419573d6000803e3d6000fd5b505050503073ffffffffffffffffffffffffffffffffffffffff166000809054906101000a900473ffffffffffffffffffffffffffffffffffffffff1673ffffffffffffffffffffffffffffffffffffffff16636c7a9e756040518163ffffffff167c0100000000000000000000000000000000000000000000000000000000028152600401602060405180830381600087803b1580156134b957600080fd5b505af11580156134cd573d6000803e3d6000fd5b505050506040513d60208110156134e357600080fd5b810190808051906020019092919050505073ffffffffffffffffffffffffffffffffffffffff1614151561351657600080fd5b3073ffffffffffffffffffffffffffffffffffffffff16600260009054906101000a900473ffffffffffffffffffffffffffffffffffffffff1673ffffffffffffffffffffffffffffffffffffffff1663b2bdfa7b6040518163ffffffff167c0100000000000000000000000000000000000000000000000000000000028152600401602060405180830381600087803b1580156135b357600080fd5b505af11580156135c7573d6000803e3d6000fd5b505050506040513d60208110156135dd57600080fd5b810190808051906020019092919050505073ffffffffffffffffffffffffffffffffffffffff1614151561361057600080fd5b3073ffffffffffffffffffffffffffffffffffffffff16600160009054906101000a900473ffffffffffffffffffffffffffffffffffffffff1673ffffffffffffffffffffffffffffffffffffffff1663b2bdfa7b6040518163ffffffff167c0100000000000000000000000000000000000000000000000000000000028152600401602060405180830381600087803b1580156136ad57600080fd5b505af11580156136c1573d6000803e3d6000fd5b505050506040513d60208110156136d757600080fd5b810190808051906020019092919050505073ffffffffffffffffffffffffffffffffffffffff1614151561370a57600080fd5b600073ffffffffffffffffffffffffffffffffffffffff168273ffffffffffffffffffffffffffffffffffffffff16141515613a0857600073ffffffffffffffffffffffffffffffffffffffff168373ffffffffffffffffffffffffffffffffffffffff1614151561377b57600080fd5b6000809054906101000a900473ffffffffffffffffffffffffffffffffffffffff1673ffffffffffffffffffffffffffffffffffffffff16634cf088d96040518163ffffffff167c0100000000000000000000000000000000000000000000000000000000028152600401602060405180830381600087803b15801561380057600080fd5b505af1158015613814573d6000803e3d6000fd5b505050506040513d602081101561382a57600080fd5b81019080805190602001909291905050509050600160009054906101000a900473ffffffffffffffffffffffffffffffffffffffff1673ffffffffffffffffffffffffffffffffffffffff166340c10f19600260009054906101000a900473ffffffffffffffffffffffffffffffffffffffff16836040518363ffffffff167c0100000000000000000000000000000000000000000000000000000000028152600401808373ffffffffffffffffffffffffffffffffffffffff1673ffffffffffffffffffffffffffffffffffffffff16815260200182815260200192505050600060405180830381600087803b15801561392457600080fd5b505af1158015613938573d6000803e3d6000fd5b50505050613a076000809054906101000a900473ffffffffffffffffffffffffffffffffffffffff1673ffffffffffffffffffffffffffffffffffffffff16633b80c59b6040518163ffffffff167c0100000000000000000000000000000000000000000000000000000000028152600401602060405180830381600087803b1580156139c457600080fd5b505af11580156139d8573d6000803e3d6000fd5b505050506040513d60208110156139ee57600080fd5b810190808051906020019092919050505083838461701d565b5b505050565b60008060009054906101000a900473ffffffffffffffffffffffffffffffffffffffff1673ffffffffffffffffffffffffffffffffffffffff16633b80c59b6040518163ffffffff167c0100000000000000000000000000000000000000000000000000000000028152600401602060405180830381600087803b158015613a9457600080fd5b505af1158015613aa8573d6000803e3d6000fd5b505050506040513d6020811015613abe57600080fd5b8101908080519060200190929190505050905090565b600080600060016002811115613ae657fe5b600360149054906101000a900460ff166002811115613b0157fe5b141515613b0d57600080fd5b600073ffffffffffffffffffffffffffffffffffffffff168473ffffffffffffffffffffffffffffffffffffffff161415613b46573393505b34925060008314151515613b5957600080fd5b6000809054906101000a900473ffffffffffffffffffffffffffffffffffffffff1673ffffffffffffffffffffffffffffffffffffffff1663c72507e96040518163ffffffff167c0100000000000000000000000000000000000000000000000000000000028152600401600060405180830381600087803b158015613bde57600080fd5b505af1158015613bf2573d6000803e3d6000fd5b50505050613d7f6000809054906101000a900473ffffffffffffffffffffffffffffffffffffffff1673ffffffffffffffffffffffffffffffffffffffff16634cf088d96040518163ffffffff167c0100000000000000000000000000000000000000000000000000000000028152600401602060405180830381600087803b158015613c7e57600080fd5b505af1158015613c92573d6000803e3d6000fd5b505050506040513d6020811015613ca857600080fd5b8101908080519060200190929190505050600260009054906101000a900473ffffffffffffffffffffffffffffffffffffffff1673ffffffffffffffffffffffffffffffffffffffff16633f90916a6040518163ffffffff167c0100000000000000000000000000000000000000000000000000000000028152600401602060405180830381600087803b158015613d3f57600080fd5b505af1158015613d53573d6000803e3d6000fd5b505050506040513d6020811015613d6957600080fd5b8101908080519060200190929190505050614ecc565b91508290506000600160009054906101000a900473ffffffffffffffffffffffffffffffffffffffff1673ffffffffffffffffffffffffffffffffffffffff166318160ddd6040518163ffffffff167c0100000000000000000000000000000000000000000000000000000000028152600401602060405180830381600087803b158015613e0c57600080fd5b505af1158015613e20573d6000803e3d6000fd5b505050506040513d6020811015613e3657600080fd5b8101908080519060200190929190505050141515613f2457613f21613f1b84600160009054906101000a900473ffffffffffffffffffffffffffffffffffffffff1673ffffffffffffffffffffffffffffffffffffffff166318160ddd6040518163ffffffff167c0100000000000000000000000000000000000000000000000000000000028152600401602060405180830381600087803b158015613edb57600080fd5b505af1158015613eef573d6000803e3d6000fd5b505050506040513d6020811015613f0557600080fd5b8101908080519060200190929190505050614ee8565b83614f39565b90505b6000809054906101000a900473ffffffffffffffffffffffffffffffffffffffff1673ffffffffffffffffffffffffffffffffffffffff1663c72507e9846040518263ffffffff167c01000000000000000000000000000000000000000000000000000000000281526004016000604051808303818588803b158015613fa957600080fd5b505af1158015613fbd573d6000803e3d6000fd5b5050505050600160009054906101000a900473ffffffffffffffffffffffffffffffffffffffff1673ffffffffffffffffffffffffffffffffffffffff166340c10f19600260009054906101000a900473ffffffffffffffffffffffffffffffffffffffff16836040518363ffffffff167c0100000000000000000000000000000000000000000000000000000000028152600401808373ffffffffffffffffffffffffffffffffffffffff1673ffffffffffffffffffffffffffffffffffffffff16815260200182815260200192505050600060405180830381600087803b1580156140a957600080fd5b505af11580156140bd573d6000803e3d6000fd5b5050505061418c6000809054906101000a900473ffffffffffffffffffffffffffffffffffffffff1673ffffffffffffffffffffffffffffffffffffffff16633b80c59b6040518163ffffffff167c0100000000000000000000000000000000000000000000000000000000028152600401602060405180830381600087803b15801561414957600080fd5b505af115801561415d573d6000803e3d6000fd5b505050506040513d602081101561417357600080fd5b810190808051906020019092919050505085858461701d565b7f5af417134f72a9d41143ace85b0a26dce6f550f894f2cbc1eeee8810603d91b6848483604051808473ffffffffffffffffffffffffffffffffffffffff1673ffffffffffffffffffffffffffffffffffffffff168152602001838152602001828152602001935050505060405180910390a161420884616063565b6142106164db565b50505050565b60008060009054906101000a900473ffffffffffffffffffffffffffffffffffffffff1673ffffffffffffffffffffffffffffffffffffffff163373ffffffffffffffffffffffffffffffffffffffff1614151561427357600080fd5b8373ffffffffffffffffffffffffffffffffffffffff16838360405180828051906020019080838360005b838110156142b957808201518184015260208101905061429e565b50505050905090810190601f1680156142e65780820380516001836020036101000a031916815260200191505b5091505060006040518083038185875af192505050905080151561430957600080fd5b50505050565b60008060008060006001600281111561432457fe5b600360149054906101000a900460ff16600281111561433f57fe5b14151561434b57600080fd5b6000809054906101000a900473ffffffffffffffffffffffffffffffffffffffff1673ffffffffffffffffffffffffffffffffffffffff16636e93df0d876040518263ffffffff167c010000000000000000000000000000000000000000000000000000000002815260040180828152602001915050602060405180830381600087803b1580156143db57600080fd5b505af11580156143ef573d6000803e3d6000fd5b505050506040513d602081101561440557600080fd5b8101908080519060200190929190505050600281111561442157fe5b9450600260009054906101000a900473ffffffffffffffffffffffffffffffffffffffff1673ffffffffffffffffffffffffffffffffffffffff16637b4e6e816000809054906101000a900473ffffffffffffffffffffffffffffffffffffffff1673ffffffffffffffffffffffffffffffffffffffff16633b80c59b6040518163ffffffff167c0100000000000000000000000000000000000000000000000000000000028152600401602060405180830381600087803b1580156144e657600080fd5b505af11580156144fa573d6000803e3d6000fd5b505050506040513d602081101561451057600080fd5b8101908080519060200190929190505050886040518363ffffffff167c0100000000000000000000000000000000000000000000000000000000028152600401808373ffffffffffffffffffffffffffffffffffffffff1673ffffffffffffffffffffffffffffffffffffffff1681526020018281526020019250505060a060405180830381600087803b1580156145a757600080fd5b505af11580156145bb573d6000803e3d6000fd5b505050506040513d60a08110156145d157600080fd5b810190808051906020019092919080519060200190929190805190602001909291908051906020019092919080519060200190929190505050505050935093506001600281111561461e57fe5b85600281111561462a57fe5b1415614771576146f96000809054906101000a900473ffffffffffffffffffffffffffffffffffffffff1673ffffffffffffffffffffffffffffffffffffffff16633b80c59b6040518163ffffffff167c0100000000000000000000000000000000000000000000000000000000028152600401602060405180830381600087803b1580156146b857600080fd5b505af11580156146cc573d6000803e3d6000fd5b505050506040513d60208110156146e257600080fd5b810190808051906020019092919050505087617aa2565b7f0ee7e15e17b403c450ef3d4ac1f85ac0dc117ea506e86a25d79ce5c3657b428e848488604051808473ffffffffffffffffffffffffffffffffffffffff1673ffffffffffffffffffffffffffffffffffffffff168152602001838152602001828152602001935050505060405180910390a1614da0565b60028081111561477d57fe5b85600281111561478957fe5b1415614d9f576000809054906101000a900473ffffffffffffffffffffffffffffffffffffffff1673ffffffffffffffffffffffffffffffffffffffff1663c72507e96040518163ffffffff167c0100000000000000000000000000000000000000000000000000000000028152600401600060405180830381600087803b15801561481457600080fd5b505af1158015614828573d6000803e3d6000fd5b505050506149b56000809054906101000a900473ffffffffffffffffffffffffffffffffffffffff1673ffffffffffffffffffffffffffffffffffffffff16634cf088d96040518163ffffffff167c0100000000000000000000000000000000000000000000000000000000028152600401602060405180830381600087803b1580156148b457600080fd5b505af11580156148c8573d6000803e3d6000fd5b505050506040513d60208110156148de57600080fd5b8101908080519060200190929190505050600260009054906101000a900473ffffffffffffffffffffffffffffffffffffffff1673ffffffffffffffffffffffffffffffffffffffff16633f90916a6040518163ffffffff167c0100000000000000000000000000000000000000000000000000000000028152600401602060405180830381600087803b15801561497557600080fd5b505af1158015614989573d6000803e3d6000fd5b505050506040513d602081101561499f57600080fd5b8101908080519060200190929190505050614ecc565b91508290506000600160009054906101000a900473ffffffffffffffffffffffffffffffffffffffff1673ffffffffffffffffffffffffffffffffffffffff166318160ddd6040518163ffffffff167c0100000000000000000000000000000000000000000000000000000000028152600401602060405180830381600087803b158015614a4257600080fd5b505af1158015614a56573d6000803e3d6000fd5b505050506040513d6020811015614a6c57600080fd5b8101908080519060200190929190505050141515614b5a57614b57614b5184600160009054906101000a900473ffffffffffffffffffffffffffffffffffffffff1673ffffffffffffffffffffffffffffffffffffffff166318160ddd6040518163ffffffff167c0100000000000000000000000000000000000000000000000000000000028152600401602060405180830381600087803b158015614b1157600080fd5b505af1158015614b25573d6000803e3d6000fd5b505050506040513d6020811015614b3b57600080fd5b8101908080519060200190929190505050614ee8565b83614f39565b90505b600160009054906101000a900473ffffffffffffffffffffffffffffffffffffffff1673ffffffffffffffffffffffffffffffffffffffff166340c10f19600260009054906101000a900473ffffffffffffffffffffffffffffffffffffffff16836040518363ffffffff167c0100000000000000000000000000000000000000000000000000000000028152600401808373ffffffffffffffffffffffffffffffffffffffff1673ffffffffffffffffffffffffffffffffffffffff16815260200182815260200192505050600060405180830381600087803b158015614c4157600080fd5b505af1158015614c55573d6000803e3d6000fd5b50505050614d236000809054906101000a900473ffffffffffffffffffffffffffffffffffffffff1673ffffffffffffffffffffffffffffffffffffffff16633b80c59b6040518163ffffffff167c0100000000000000000000000000000000000000000000000000000000028152600401602060405180830381600087803b158015614ce157600080fd5b505af1158015614cf5573d6000803e3d6000fd5b505050506040513d6020811015614d0b57600080fd5b81019080805190602001909291905050508783618346565b7f253ef10f5d89eed9e7ac3d0fa45c04a6b4ae2fb0a798d8e7c9ffbab895bb505884848389604051808573ffffffffffffffffffffffffffffffffffffffff1673ffffffffffffffffffffffffffffffffffffffff16815260200184815260200183815260200182815260200194505050505060405180910390a15b5b614da984616063565b614db16164db565b505050505050565b600360149054906101000a900460ff1681565b60016002811115614dd957fe5b600360149054906101000a900460ff166002811115614df457fe5b141515614e0057600080fd5b6000809054906101000a900473ffffffffffffffffffffffffffffffffffffffff1673ffffffffffffffffffffffffffffffffffffffff1663c72507e96040518163ffffffff167c0100000000000000000000000000000000000000000000000000000000028152600401600060405180830381600087803b158015614e8557600080fd5b505af1158015614e99573d6000803e3d6000fd5b50505050614ea56164db565b565b6000809054906101000a900473ffffffffffffffffffffffffffffffffffffffff1681565b6000818310151515614edd57600080fd5b818303905092915050565b600080821480614f235750817fffffffffffffffffffffffffffffffffffffffffffffffffffffffffffffffff811515614f1e57fe5b048311155b1515614f2e57600080fd5b818302905092915050565b6000808214151515614f4a57600080fd5b8183811515614f5557fe5b04905092915050565b600080600260009054906101000a900473ffffffffffffffffffffffffffffffffffffffff1673ffffffffffffffffffffffffffffffffffffffff16632e4122d5886040518263ffffffff167c0100000000000000000000000000000000000000000000000000000000028152600401808273ffffffffffffffffffffffffffffffffffffffff1673ffffffffffffffffffffffffffffffffffffffff168152602001915050602060405180830381600087803b15801561501e57600080fd5b505af1158015615032573d6000803e3d6000fd5b505050506040513d602081101561504857600080fd5b81019080805190602001909291905050509150600260009054906101000a900473ffffffffffffffffffffffffffffffffffffffff1673ffffffffffffffffffffffffffffffffffffffff16630bc13f9e88846001808111156150a757fe5b8c428c600060028111156150b757fe5b8c6040518963ffffffff167c0100000000000000000000000000000000000000000000000000000000028152600401808973ffffffffffffffffffffffffffffffffffffffff1673ffffffffffffffffffffffffffffffffffffffff1681526020018881526020018781526020018673ffffffffffffffffffffffffffffffffffffffff1673ffffffffffffffffffffffffffffffffffffffff16815260200185815260200184815260200183815260200182815260200198505050505050505050600060405180830381600087803b15801561519357600080fd5b505af11580156151a7573d6000803e3d6000fd5b50505050600260009054906101000a900473ffffffffffffffffffffffffffffffffffffffff1673ffffffffffffffffffffffffffffffffffffffff16634b113f4c89858a866040518563ffffffff167c0100000000000000000000000000000000000000000000000000000000028152600401808573ffffffffffffffffffffffffffffffffffffffff1673ffffffffffffffffffffffffffffffffffffffff1681526020018481526020018373ffffffffffffffffffffffffffffffffffffffff1673ffffffffffffffffffffffffffffffffffffffff168152602001828152602001945050505050600060405180830381600087803b1580156152ac57600080fd5b505af11580156152c0573d6000803e3d6000fd5b50505050600260009054906101000a900473ffffffffffffffffffffffffffffffffffffffff1673ffffffffffffffffffffffffffffffffffffffff1663c6b21b0288615404600260009054906101000a900473ffffffffffffffffffffffffffffffffffffffff1673ffffffffffffffffffffffffffffffffffffffff1663f340fa018c6040518263ffffffff167c0100000000000000000000000000000000000000000000000000000000028152600401808273ffffffffffffffffffffffffffffffffffffffff1673ffffffffffffffffffffffffffffffffffffffff168152602001915050602060405180830381600087803b1580156153c357600080fd5b505af11580156153d7573d6000803e3d6000fd5b505050506040513d60208110156153ed57600080fd5b810190808051906020019092919050505089614ecc565b6040518363ffffffff167c0100000000000000000000000000000000000000000000000000000000028152600401808373ffffffffffffffffffffffffffffffffffffffff1673ffffffffffffffffffffffffffffffffffffffff16815260200182815260200192505050600060405180830381600087803b15801561548957600080fd5b505af115801561549d573d6000803e3d6000fd5b50505050600260009054906101000a900473ffffffffffffffffffffffffffffffffffffffff1673ffffffffffffffffffffffffffffffffffffffff166390e4d2bd886155e1600260009054906101000a900473ffffffffffffffffffffffffffffffffffffffff1673ffffffffffffffffffffffffffffffffffffffff1663e5dbd4268c6040518263ffffffff167c0100000000000000000000000000000000000000000000000000000000028152600401808273ffffffffffffffffffffffffffffffffffffffff1673ffffffffffffffffffffffffffffffffffffffff168152602001915050602060405180830381600087803b1580156155a057600080fd5b505af11580156155b4573d6000803e3d6000fd5b505050506040513d60208110156155ca57600080fd5b81019080805190602001909291905050508a616c20565b6040518363ffffffff167c0100000000000000000000000000000000000000000000000000000000028152600401808373ffffffffffffffffffffffffffffffffffffffff1673ffffffffffffffffffffffffffffffffffffffff16815260200182815260200192505050600060405180830381600087803b15801561566657600080fd5b505af115801561567a573d6000803e3d6000fd5b50505050600260009054906101000a900473ffffffffffffffffffffffffffffffffffffffff1673ffffffffffffffffffffffffffffffffffffffff1663a76f7a75886157be600260009054906101000a900473ffffffffffffffffffffffffffffffffffffffff1673ffffffffffffffffffffffffffffffffffffffff16635eebea208c6040518263ffffffff167c0100000000000000000000000000000000000000000000000000000000028152600401808273ffffffffffffffffffffffffffffffffffffffff1673ffffffffffffffffffffffffffffffffffffffff168152602001915050602060405180830381600087803b15801561577d57600080fd5b505af1158015615791573d6000803e3d6000fd5b505050506040513d60208110156157a757600080fd5b81019080805190602001909291905050508a616c20565b6040518363ffffffff167c0100000000000000000000000000000000000000000000000000000000028152600401808373ffffffffffffffffffffffffffffffffffffffff1673ffffffffffffffffffffffffffffffffffffffff16815260200182815260200192505050600060405180830381600087803b15801561584357600080fd5b505af1158015615857573d6000803e3d6000fd5b50505050600260009054906101000a900473ffffffffffffffffffffffffffffffffffffffff1673ffffffffffffffffffffffffffffffffffffffff166387df735d615963600260009054906101000a900473ffffffffffffffffffffffffffffffffffffffff1673ffffffffffffffffffffffffffffffffffffffff16633f90916a6040518163ffffffff167c0100000000000000000000000000000000000000000000000000000000028152600401602060405180830381600087803b15801561592257600080fd5b505af1158015615936573d6000803e3d6000fd5b505050506040513d602081101561594c57600080fd5b810190808051906020019092919050505089616c20565b6040518263ffffffff167c010000000000000000000000000000000000000000000000000000000002815260040180828152602001915050600060405180830381600087803b1580156159b557600080fd5b505af11580156159c9573d6000803e3d6000fd5b50505050600260009054906101000a900473ffffffffffffffffffffffffffffffffffffffff1673ffffffffffffffffffffffffffffffffffffffff1663f28a6f5f89896040518363ffffffff167c0100000000000000000000000000000000000000000000000000000000028152600401808373ffffffffffffffffffffffffffffffffffffffff1673ffffffffffffffffffffffffffffffffffffffff1681526020018273ffffffffffffffffffffffffffffffffffffffff1673ffffffffffffffffffffffffffffffffffffffff16815260200192505050602060405180830381600087803b158015615abe57600080fd5b505af1158015615ad2573d6000803e3d6000fd5b505050506040513d6020811015615ae857600080fd5b81019080805190602001909291905050509050600260009054906101000a900473ffffffffffffffffffffffffffffffffffffffff1673ffffffffffffffffffffffffffffffffffffffff1663c17ac0cc898984600180811115615b4857fe5b428c60006002811115615b5757fe5b8c6040518963ffffffff167c0100000000000000000000000000000000000000000000000000000000028152600401808973ffffffffffffffffffffffffffffffffffffffff1673ffffffffffffffffffffffffffffffffffffffff1681526020018873ffffffffffffffffffffffffffffffffffffffff1673ffffffffffffffffffffffffffffffffffffffff16815260200187815260200186815260200185815260200184815260200183815260200182815260200198505050505050505050600060405180830381600087803b158015615c3357600080fd5b505af1158015615c47573d6000803e3d6000fd5b50505050600260009054906101000a900473ffffffffffffffffffffffffffffffffffffffff1673ffffffffffffffffffffffffffffffffffffffff1663101c53d589856040518363ffffffff167c0100000000000000000000000000000000000000000000000000000000028152600401808373ffffffffffffffffffffffffffffffffffffffff1673ffffffffffffffffffffffffffffffffffffffff16815260200182815260200192505050600060405180830381600087803b158015615d1057600080fd5b505af1158015615d24573d6000803e3d6000fd5b50505050600260009054906101000a900473ffffffffffffffffffffffffffffffffffffffff1673ffffffffffffffffffffffffffffffffffffffff16638ab3829489858a8a8960006002811115615d7857fe5b886040518863ffffffff167c0100000000000000000000000000000000000000000000000000000000028152600401808873ffffffffffffffffffffffffffffffffffffffff1673ffffffffffffffffffffffffffffffffffffffff1681526020018781526020018673ffffffffffffffffffffffffffffffffffffffff1673ffffffffffffffffffffffffffffffffffffffff168152602001858152602001848152602001838152602001828152602001975050505050505050600060405180830381600087803b158015615e4d57600080fd5b505af1158015615e61573d6000803e3d6000fd5b50505050600260009054906101000a900473ffffffffffffffffffffffffffffffffffffffff1673ffffffffffffffffffffffffffffffffffffffff16637daaf6ee88600185016040518363ffffffff167c0100000000000000000000000000000000000000000000000000000000028152600401808373ffffffffffffffffffffffffffffffffffffffff1673ffffffffffffffffffffffffffffffffffffffff16815260200182815260200192505050600060405180830381600087803b158015615f2d57600080fd5b505af1158015615f41573d6000803e3d6000fd5b50505050600260009054906101000a900473ffffffffffffffffffffffffffffffffffffffff1673ffffffffffffffffffffffffffffffffffffffff16630515b0798989600185016040518463ffffffff167c0100000000000000000000000000000000000000000000000000000000028152600401808473ffffffffffffffffffffffffffffffffffffffff1673ffffffffffffffffffffffffffffffffffffffff1681526020018373ffffffffffffffffffffffffffffffffffffffff1673ffffffffffffffffffffffffffffffffffffffff1681526020018281526020019350505050600060405180830381600087803b15801561604157600080fd5b505af1158015616055573d6000803e3d6000fd5b505050505050505050505050565b600080600080600260009054906101000a900473ffffffffffffffffffffffffffffffffffffffff1673ffffffffffffffffffffffffffffffffffffffff1663f340fa01866040518263ffffffff167c0100000000000000000000000000000000000000000000000000000000028152600401808273ffffffffffffffffffffffffffffffffffffffff1673ffffffffffffffffffffffffffffffffffffffff168152602001915050602060405180830381600087803b15801561612657600080fd5b505af115801561613a573d6000803e3d6000fd5b505050506040513d602081101561615057600080fd5b81019080805190602001909291905050509350600260009054906101000a900473ffffffffffffffffffffffffffffffffffffffff1673ffffffffffffffffffffffffffffffffffffffff16635eebea20866040518263ffffffff167c0100000000000000000000000000000000000000000000000000000000028152600401808273ffffffffffffffffffffffffffffffffffffffff1673ffffffffffffffffffffffffffffffffffffffff168152602001915050602060405180830381600087803b15801561622057600080fd5b505af1158015616234573d6000803e3d6000fd5b505050506040513d602081101561624a57600080fd5b81019080805190602001909291905050509250600260009054906101000a900473ffffffffffffffffffffffffffffffffffffffff1673ffffffffffffffffffffffffffffffffffffffff1663b6b4d53c866040518263ffffffff167c0100000000000000000000000000000000000000000000000000000000028152600401808273ffffffffffffffffffffffffffffffffffffffff1673ffffffffffffffffffffffffffffffffffffffff168152602001915050602060405180830381600087803b15801561631a57600080fd5b505af115801561632e573d6000803e3d6000fd5b505050506040513d602081101561634457600080fd5b81019080805190602001909291905050509150600260009054906101000a900473ffffffffffffffffffffffffffffffffffffffff1673ffffffffffffffffffffffffffffffffffffffff1663e5dbd426866040518263ffffffff167c0100000000000000000000000000000000000000000000000000000000028152600401808273ffffffffffffffffffffffffffffffffffffffff1673ffffffffffffffffffffffffffffffffffffffff168152602001915050602060405180830381600087803b15801561641457600080fd5b505af1158015616428573d6000803e3d6000fd5b505050506040513d602081101561643e57600080fd5b810190808051906020019092919050505090507fc2e9917455bf0781c800ca67bf06e674f6a1bc660d23024f11094183467f9f5c8585858585604051808673ffffffffffffffffffffffffffffffffffffffff1673ffffffffffffffffffffffffffffffffffffffff1681526020018581526020018481526020018381526020018281526020019550505050505060405180910390a15050505050565b6000806000600160009054906101000a900473ffffffffffffffffffffffffffffffffffffffff1673ffffffffffffffffffffffffffffffffffffffff166318160ddd6040518163ffffffff167c0100000000000000000000000000000000000000000000000000000000028152600401602060405180830381600087803b15801561656657600080fd5b505af115801561657a573d6000803e3d6000fd5b505050506040513d602081101561659057600080fd5b810190808051906020019092919050505092506000809054906101000a900473ffffffffffffffffffffffffffffffffffffffff1673ffffffffffffffffffffffffffffffffffffffff166350f0b8b66040518163ffffffff167c0100000000000000000000000000000000000000000000000000000000028152600401608060405180830381600087803b15801561662857600080fd5b505af115801561663c573d6000803e3d6000fd5b505050506040513d608081101561665257600080fd5b8101908080519060200190929190805190602001909291908051906020019092919080519060200190929190505050505050915061674f6000809054906101000a900473ffffffffffffffffffffffffffffffffffffffff1673ffffffffffffffffffffffffffffffffffffffff16634cf088d96040518163ffffffff167c0100000000000000000000000000000000000000000000000000000000028152600401602060405180830381600087803b15801561670e57600080fd5b505af1158015616722573d6000803e3d6000fd5b505050506040513d602081101561673857600080fd5b810190808051906020019092919050505083616c20565b905061681b81600260009054906101000a900473ffffffffffffffffffffffffffffffffffffffff1673ffffffffffffffffffffffffffffffffffffffff16633f90916a6040518163ffffffff167c0100000000000000000000000000000000000000000000000000000000028152600401602060405180830381600087803b1580156167db57600080fd5b505af11580156167ef573d6000803e3d6000fd5b505050506040513d602081101561680557600080fd5b8101908080519060200190929190505050614ecc565b90507fc26fa8a0c5e69443e94d58ece6274403a8d4f2d9a7e57efc8f6a93cd61195ee78382604051808381526020018281526020019250505060405180910390a1505050565b600260009054906101000a900473ffffffffffffffffffffffffffffffffffffffff1673ffffffffffffffffffffffffffffffffffffffff1663c6b21b02846169a1600260009054906101000a900473ffffffffffffffffffffffffffffffffffffffff1673ffffffffffffffffffffffffffffffffffffffff1663f340fa01886040518263ffffffff167c0100000000000000000000000000000000000000000000000000000000028152600401808273ffffffffffffffffffffffffffffffffffffffff1673ffffffffffffffffffffffffffffffffffffffff168152602001915050602060405180830381600087803b15801561696057600080fd5b505af1158015616974573d6000803e3d6000fd5b505050506040513d602081101561698a57600080fd5b810190808051906020019092919050505086616c20565b6040518363ffffffff167c0100000000000000000000000000000000000000000000000000000000028152600401808373ffffffffffffffffffffffffffffffffffffffff1673ffffffffffffffffffffffffffffffffffffffff16815260200182815260200192505050600060405180830381600087803b158015616a2657600080fd5b505af1158015616a3a573d6000803e3d6000fd5b50505050600260009054906101000a900473ffffffffffffffffffffffffffffffffffffffff1673ffffffffffffffffffffffffffffffffffffffff1663c077ffbc84616b7e600260009054906101000a900473ffffffffffffffffffffffffffffffffffffffff1673ffffffffffffffffffffffffffffffffffffffff1663fe34b17c886040518263ffffffff167c0100000000000000000000000000000000000000000000000000000000028152600401808273ffffffffffffffffffffffffffffffffffffffff1673ffffffffffffffffffffffffffffffffffffffff168152602001915050602060405180830381600087803b158015616b3d57600080fd5b505af1158015616b51573d6000803e3d6000fd5b505050506040513d6020811015616b6757600080fd5b810190808051906020019092919050505085616c20565b6040518363ffffffff167c0100000000000000000000000000000000000000000000000000000000028152600401808373ffffffffffffffffffffffffffffffffffffffff1673ffffffffffffffffffffffffffffffffffffffff16815260200182815260200192505050600060405180830381600087803b158015616c0357600080fd5b505af1158015616c17573d6000803e3d6000fd5b50505050505050565b6000817fffffffffffffffffffffffffffffffffffffffffffffffffffffffffffffffff038311151515616c5357600080fd5b818301905092915050565b600260009054906101000a900473ffffffffffffffffffffffffffffffffffffffff1673ffffffffffffffffffffffffffffffffffffffff1663c6b21b0284616d9e600260009054906101000a900473ffffffffffffffffffffffffffffffffffffffff1673ffffffffffffffffffffffffffffffffffffffff1663f340fa01886040518263ffffffff167c0100000000000000000000000000000000000000000000000000000000028152600401808273ffffffffffffffffffffffffffffffffffffffff1673ffffffffffffffffffffffffffffffffffffffff168152602001915050602060405180830381600087803b158015616d5d57600080fd5b505af1158015616d71573d6000803e3d6000fd5b505050506040513d6020811015616d8757600080fd5b810190808051906020019092919050505086614ecc565b6040518363ffffffff167c0100000000000000000000000000000000000000000000000000000000028152600401808373ffffffffffffffffffffffffffffffffffffffff1673ffffffffffffffffffffffffffffffffffffffff16815260200182815260200192505050600060405180830381600087803b158015616e2357600080fd5b505af1158015616e37573d6000803e3d6000fd5b50505050600260009054906101000a900473ffffffffffffffffffffffffffffffffffffffff1673ffffffffffffffffffffffffffffffffffffffff1663062cef7484616f7b600260009054906101000a900473ffffffffffffffffffffffffffffffffffffffff1673ffffffffffffffffffffffffffffffffffffffff1663f4e7d7c8886040518263ffffffff167c0100000000000000000000000000000000000000000000000000000000028152600401808273ffffffffffffffffffffffffffffffffffffffff1673ffffffffffffffffffffffffffffffffffffffff168152602001915050602060405180830381600087803b158015616f3a57600080fd5b505af1158015616f4e573d6000803e3d6000fd5b505050506040513d6020811015616f6457600080fd5b810190808051906020019092919050505085616c20565b6040518363ffffffff167c0100000000000000000000000000000000000000000000000000000000028152600401808373ffffffffffffffffffffffffffffffffffffffff1673ffffffffffffffffffffffffffffffffffffffff16815260200182815260200192505050600060405180830381600087803b15801561700057600080fd5b505af1158015617014573d6000803e3d6000fd5b50505050505050565b600080600260009054906101000a900473ffffffffffffffffffffffffffffffffffffffff1673ffffffffffffffffffffffffffffffffffffffff16632e4122d5866040518263ffffffff167c0100000000000000000000000000000000000000000000000000000000028152600401808273ffffffffffffffffffffffffffffffffffffffff1673ffffffffffffffffffffffffffffffffffffffff168152602001915050602060405180830381600087803b1580156170dd57600080fd5b505af11580156170f1573d6000803e3d6000fd5b505050506040513d602081101561710757600080fd5b81019080805190602001909291905050509150600260009054906101000a900473ffffffffffffffffffffffffffffffffffffffff1673ffffffffffffffffffffffffffffffffffffffff16630bc13f9e86846000600181111561716757fe5b8a428a6001600281111561717757fe5b60006040518963ffffffff167c0100000000000000000000000000000000000000000000000000000000028152600401808973ffffffffffffffffffffffffffffffffffffffff1673ffffffffffffffffffffffffffffffffffffffff1681526020018881526020018781526020018673ffffffffffffffffffffffffffffffffffffffff1673ffffffffffffffffffffffffffffffffffffffff16815260200185815260200184815260200183815260200182815260200198505050505050505050600060405180830381600087803b15801561725457600080fd5b505af1158015617268573d6000803e3d6000fd5b50505050600260009054906101000a900473ffffffffffffffffffffffffffffffffffffffff1673ffffffffffffffffffffffffffffffffffffffff1663c6b21b02866173ac600260009054906101000a900473ffffffffffffffffffffffffffffffffffffffff1673ffffffffffffffffffffffffffffffffffffffff1663f340fa018a6040518263ffffffff167c0100000000000000000000000000000000000000000000000000000000028152600401808273ffffffffffffffffffffffffffffffffffffffff1673ffffffffffffffffffffffffffffffffffffffff168152602001915050602060405180830381600087803b15801561736b57600080fd5b505af115801561737f573d6000803e3d6000fd5b505050506040513d602081101561739557600080fd5b810190808051906020019092919050505087616c20565b6040518363ffffffff167c0100000000000000000000000000000000000000000000000000000000028152600401808373ffffffffffffffffffffffffffffffffffffffff1673ffffffffffffffffffffffffffffffffffffffff16815260200182815260200192505050600060405180830381600087803b15801561743157600080fd5b505af1158015617445573d6000803e3d6000fd5b50505050600260009054906101000a900473ffffffffffffffffffffffffffffffffffffffff1673ffffffffffffffffffffffffffffffffffffffff166312462ee586617589600260009054906101000a900473ffffffffffffffffffffffffffffffffffffffff1673ffffffffffffffffffffffffffffffffffffffff1663b6b4d53c8a6040518263ffffffff167c0100000000000000000000000000000000000000000000000000000000028152600401808273ffffffffffffffffffffffffffffffffffffffff1673ffffffffffffffffffffffffffffffffffffffff168152602001915050602060405180830381600087803b15801561754857600080fd5b505af115801561755c573d6000803e3d6000fd5b505050506040513d602081101561757257600080fd5b810190808051906020019092919050505088616c20565b6040518363ffffffff167c0100000000000000000000000000000000000000000000000000000000028152600401808373ffffffffffffffffffffffffffffffffffffffff1673ffffffffffffffffffffffffffffffffffffffff16815260200182815260200192505050600060405180830381600087803b15801561760e57600080fd5b505af1158015617622573d6000803e3d6000fd5b50505050600260009054906101000a900473ffffffffffffffffffffffffffffffffffffffff1673ffffffffffffffffffffffffffffffffffffffff1663f28a6f5f87876040518363ffffffff167c0100000000000000000000000000000000000000000000000000000000028152600401808373ffffffffffffffffffffffffffffffffffffffff1673ffffffffffffffffffffffffffffffffffffffff1681526020018273ffffffffffffffffffffffffffffffffffffffff1673ffffffffffffffffffffffffffffffffffffffff16815260200192505050602060405180830381600087803b15801561771757600080fd5b505af115801561772b573d6000803e3d6000fd5b505050506040513d602081101561774157600080fd5b81019080805190602001909291905050509050600260009054906101000a900473ffffffffffffffffffffffffffffffffffffffff1673ffffffffffffffffffffffffffffffffffffffff1663c17ac0cc878784600060018111156177a257fe5b428a600160028111156177b157fe5b60006040518963ffffffff167c0100000000000000000000000000000000000000000000000000000000028152600401808973ffffffffffffffffffffffffffffffffffffffff1673ffffffffffffffffffffffffffffffffffffffff1681526020018873ffffffffffffffffffffffffffffffffffffffff1673ffffffffffffffffffffffffffffffffffffffff16815260200187815260200186815260200185815260200184815260200183815260200182815260200198505050505050505050600060405180830381600087803b15801561788e57600080fd5b505af11580156178a2573d6000803e3d6000fd5b50505050600260009054906101000a900473ffffffffffffffffffffffffffffffffffffffff1673ffffffffffffffffffffffffffffffffffffffff16637daaf6ee86600185016040518363ffffffff167c0100000000000000000000000000000000000000000000000000000000028152600401808373ffffffffffffffffffffffffffffffffffffffff1673ffffffffffffffffffffffffffffffffffffffff16815260200182815260200192505050600060405180830381600087803b15801561796e57600080fd5b505af1158015617982573d6000803e3d6000fd5b50505050600260009054906101000a900473ffffffffffffffffffffffffffffffffffffffff1673ffffffffffffffffffffffffffffffffffffffff16630515b0798787600185016040518463ffffffff167c0100000000000000000000000000000000000000000000000000000000028152600401808473ffffffffffffffffffffffffffffffffffffffff1673ffffffffffffffffffffffffffffffffffffffff1681526020018373ffffffffffffffffffffffffffffffffffffffff1673ffffffffffffffffffffffffffffffffffffffff1681526020018281526020019350505050600060405180830381600087803b158015617a8257600080fd5b505af1158015617a96573d6000803e3d6000fd5b50505050505050505050565b6000806000806000600260009054906101000a900473ffffffffffffffffffffffffffffffffffffffff1673ffffffffffffffffffffffffffffffffffffffff16638ff060e588886040518363ffffffff167c0100000000000000000000000000000000000000000000000000000000028152600401808373ffffffffffffffffffffffffffffffffffffffff1673ffffffffffffffffffffffffffffffffffffffff168152602001828152602001925050506040805180830381600087803b158015617b6e57600080fd5b505af1158015617b82573d6000803e3d6000fd5b505050506040513d6040811015617b9857600080fd5b81019080805190602001909291908051906020019092919050505094509450600260009054906101000a900473ffffffffffffffffffffffffffffffffffffffff1673ffffffffffffffffffffffffffffffffffffffff1663367d3036868660016002811115617c0457fe5b6040518463ffffffff167c0100000000000000000000000000000000000000000000000000000000028152600401808473ffffffffffffffffffffffffffffffffffffffff1673ffffffffffffffffffffffffffffffffffffffff1681526020018381526020018281526020019350505050600060405180830381600087803b158015617c9057600080fd5b505af1158015617ca4573d6000803e3d6000fd5b50505050600260009054906101000a900473ffffffffffffffffffffffffffffffffffffffff1673ffffffffffffffffffffffffffffffffffffffff16637b4e6e8188886040518363ffffffff167c0100000000000000000000000000000000000000000000000000000000028152600401808373ffffffffffffffffffffffffffffffffffffffff1673ffffffffffffffffffffffffffffffffffffffff1681526020018281526020019250505060a060405180830381600087803b158015617d6d57600080fd5b505af1158015617d81573d6000803e3d6000fd5b505050506040513d60a0811015617d9757600080fd5b8101908080519060200190929190805190602001909291908051906020019092919080519060200190929190805190602001909291905050509450505092509250600260009054906101000a900473ffffffffffffffffffffffffffffffffffffffff1673ffffffffffffffffffffffffffffffffffffffff1663a76f7a7584617f18600260009054906101000a900473ffffffffffffffffffffffffffffffffffffffff1673ffffffffffffffffffffffffffffffffffffffff16635eebea20886040518263ffffffff167c0100000000000000000000000000000000000000000000000000000000028152600401808273ffffffffffffffffffffffffffffffffffffffff1673ffffffffffffffffffffffffffffffffffffffff168152602001915050602060405180830381600087803b158015617ed757600080fd5b505af1158015617eeb573d6000803e3d6000fd5b505050506040513d6020811015617f0157600080fd5b810190808051906020019092919050505086614ecc565b6040518363ffffffff167c0100000000000000000000000000000000000000000000000000000000028152600401808373ffffffffffffffffffffffffffffffffffffffff1673ffffffffffffffffffffffffffffffffffffffff16815260200182815260200192505050600060405180830381600087803b158015617f9d57600080fd5b505af1158015617fb1573d6000803e3d6000fd5b50505050600260009054906101000a900473ffffffffffffffffffffffffffffffffffffffff1673ffffffffffffffffffffffffffffffffffffffff166387df735d6180bd600260009054906101000a900473ffffffffffffffffffffffffffffffffffffffff1673ffffffffffffffffffffffffffffffffffffffff16633f90916a6040518163ffffffff167c0100000000000000000000000000000000000000000000000000000000028152600401602060405180830381600087803b15801561807c57600080fd5b505af1158015618090573d6000803e3d6000fd5b505050506040513d60208110156180a657600080fd5b810190808051906020019092919050505085614ecc565b6040518263ffffffff167c010000000000000000000000000000000000000000000000000000000002815260040180828152602001915050600060405180830381600087803b15801561810f57600080fd5b505af1158015618123573d6000803e3d6000fd5b50505050600260009054906101000a900473ffffffffffffffffffffffffffffffffffffffff1673ffffffffffffffffffffffffffffffffffffffff1663f110c93888886001600281111561817457fe5b6040518463ffffffff167c0100000000000000000000000000000000000000000000000000000000028152600401808473ffffffffffffffffffffffffffffffffffffffff1673ffffffffffffffffffffffffffffffffffffffff1681526020018381526020018281526020019350505050600060405180830381600087803b15801561820057600080fd5b505af1158015618214573d6000803e3d6000fd5b50505050600260009054906101000a900473ffffffffffffffffffffffffffffffffffffffff1673ffffffffffffffffffffffffffffffffffffffff16633d3145948885846001600281111561826657fe5b6040518563ffffffff167c0100000000000000000000000000000000000000000000000000000000028152600401808573ffffffffffffffffffffffffffffffffffffffff1673ffffffffffffffffffffffffffffffffffffffff1681526020018473ffffffffffffffffffffffffffffffffffffffff1673ffffffffffffffffffffffffffffffffffffffff168152602001838152602001828152602001945050505050600060405180830381600087803b15801561832557600080fd5b505af1158015618339573d6000803e3d6000fd5b5050505050505050505050565b6000806000806000600260009054906101000a900473ffffffffffffffffffffffffffffffffffffffff1673ffffffffffffffffffffffffffffffffffffffff16638ff060e589896040518363ffffffff167c0100000000000000000000000000000000000000000000000000000000028152600401808373ffffffffffffffffffffffffffffffffffffffff1673ffffffffffffffffffffffffffffffffffffffff168152602001828152602001925050506040805180830381600087803b15801561841257600080fd5b505af1158015618426573d6000803e3d6000fd5b505050506040513d604081101561843c57600080fd5b81019080805190602001909291908051906020019092919050505094509450600260009054906101000a900473ffffffffffffffffffffffffffffffffffffffff1673ffffffffffffffffffffffffffffffffffffffff1663367d303686866002808111156184a757fe5b6040518463ffffffff167c0100000000000000000000000000000000000000000000000000000000028152600401808473ffffffffffffffffffffffffffffffffffffffff1673ffffffffffffffffffffffffffffffffffffffff1681526020018381526020018281526020019350505050600060405180830381600087803b15801561853357600080fd5b505af1158015618547573d6000803e3d6000fd5b50505050600260009054906101000a900473ffffffffffffffffffffffffffffffffffffffff1673ffffffffffffffffffffffffffffffffffffffff16637b4e6e8189896040518363ffffffff167c0100000000000000000000000000000000000000000000000000000000028152600401808373ffffffffffffffffffffffffffffffffffffffff1673ffffffffffffffffffffffffffffffffffffffff1681526020018281526020019250505060a060405180830381600087803b15801561861057600080fd5b505af1158015618624573d6000803e3d6000fd5b505050506040513d60a081101561863a57600080fd5b8101908080519060200190929190805190602001909291908051906020019092919080519060200190929190805190602001909291905050509450505092509250600260009054906101000a900473ffffffffffffffffffffffffffffffffffffffff1673ffffffffffffffffffffffffffffffffffffffff1663c6b21b02846187bb600260009054906101000a900473ffffffffffffffffffffffffffffffffffffffff1673ffffffffffffffffffffffffffffffffffffffff1663f340fa01886040518263ffffffff167c0100000000000000000000000000000000000000000000000000000000028152600401808273ffffffffffffffffffffffffffffffffffffffff1673ffffffffffffffffffffffffffffffffffffffff168152602001915050602060405180830381600087803b15801561877a57600080fd5b505af115801561878e573d6000803e3d6000fd5b505050506040513d60208110156187a457600080fd5b81019080805190602001909291905050508a616c20565b6040518363ffffffff167c0100000000000000000000000000000000000000000000000000000000028152600401808373ffffffffffffffffffffffffffffffffffffffff1673ffffffffffffffffffffffffffffffffffffffff16815260200182815260200192505050600060405180830381600087803b15801561884057600080fd5b505af1158015618854573d6000803e3d6000fd5b50505050600260009054906101000a900473ffffffffffffffffffffffffffffffffffffffff1673ffffffffffffffffffffffffffffffffffffffff166390e4d2bd84618998600260009054906101000a900473ffffffffffffffffffffffffffffffffffffffff1673ffffffffffffffffffffffffffffffffffffffff1663e5dbd426886040518263ffffffff167c0100000000000000000000000000000000000000000000000000000000028152600401808273ffffffffffffffffffffffffffffffffffffffff1673ffffffffffffffffffffffffffffffffffffffff168152602001915050602060405180830381600087803b15801561895757600080fd5b505af115801561896b573d6000803e3d6000fd5b505050506040513d602081101561898157600080fd5b810190808051906020019092919050505086614ecc565b6040518363ffffffff167c0100000000000000000000000000000000000000000000000000000000028152600401808373ffffffffffffffffffffffffffffffffffffffff1673ffffffffffffffffffffffffffffffffffffffff16815260200182815260200192505050600060405180830381600087803b158015618a1d57600080fd5b505af1158015618a31573d6000803e3d6000fd5b50505050600260009054906101000a900473ffffffffffffffffffffffffffffffffffffffff1673ffffffffffffffffffffffffffffffffffffffff1663a76f7a7584618b75600260009054906101000a900473ffffffffffffffffffffffffffffffffffffffff1673ffffffffffffffffffffffffffffffffffffffff16635eebea20886040518263ffffffff167c0100000000000000000000000000000000000000000000000000000000028152600401808273ffffffffffffffffffffffffffffffffffffffff1673ffffffffffffffffffffffffffffffffffffffff168152602001915050602060405180830381600087803b158015618b3457600080fd5b505af1158015618b48573d6000803e3d6000fd5b505050506040513d6020811015618b5e57600080fd5b810190808051906020019092919050505086614ecc565b6040518363ffffffff167c0100000000000000000000000000000000000000000000000000000000028152600401808373ffffffffffffffffffffffffffffffffffffffff1673ffffffffffffffffffffffffffffffffffffffff16815260200182815260200192505050600060405180830381600087803b158015618bfa57600080fd5b505af1158015618c0e573d6000803e3d6000fd5b50505050600260009054906101000a900473ffffffffffffffffffffffffffffffffffffffff1673ffffffffffffffffffffffffffffffffffffffff166387df735d618d1a600260009054906101000a900473ffffffffffffffffffffffffffffffffffffffff1673ffffffffffffffffffffffffffffffffffffffff16633f90916a6040518163ffffffff167c0100000000000000000000000000000000000000000000000000000000028152600401602060405180830381600087803b158015618cd957600080fd5b505af1158015618ced573d6000803e3d6000fd5b505050506040513d6020811015618d0357600080fd5b810190808051906020019092919050505085614ecc565b6040518263ffffffff167c010000000000000000000000000000000000000000000000000000000002815260040180828152602001915050600060405180830381600087803b158015618d6c57600080fd5b505af1158015618d80573d6000803e3d6000fd5b50505050600260009054906101000a900473ffffffffffffffffffffffffffffffffffffffff1673ffffffffffffffffffffffffffffffffffffffff1663f110c9388989600280811115618dd057fe5b6040518463ffffffff167c0100000000000000000000000000000000000000000000000000000000028152600401808473ffffffffffffffffffffffffffffffffffffffff1673ffffffffffffffffffffffffffffffffffffffff1681526020018381526020018281526020019350505050600060405180830381600087803b158015618e5c57600080fd5b505af1158015618e70573d6000803e3d6000fd5b50505050600260009054906101000a900473ffffffffffffffffffffffffffffffffffffffff1673ffffffffffffffffffffffffffffffffffffffff16633d314594898584600280811115618ec157fe5b6040518563ffffffff167c0100000000000000000000000000000000000000000000000000000000028152600401808573ffffffffffffffffffffffffffffffffffffffff1673ffffffffffffffffffffffffffffffffffffffff1681526020018473ffffffffffffffffffffffffffffffffffffffff1673ffffffffffffffffffffffffffffffffffffffff168152602001838152602001828152602001945050505050600060405180830381600087803b158015618f8057600080fd5b505af1158015618f94573d6000803e3d6000fd5b5050505050505050505050505600a165627a7a723058201a6f2bb9ad8359fdf1856b0113199156d973a55e9631de795cf3dc1c799757250029",
  "source": "pragma solidity 0.4.24;\n\nimport './StoreContract.sol';\n\ncontract ProxyLike {\n    address public CnStaking;\n    address public Delegation;\n    function setDelegation(address) external;\n\n    function getRewardStat() external view returns (uint, uint, uint, uint);\n\n    function stakeKlay() external payable;\n    function staking() external view returns (uint);\n\n    function submitApproveStakingWithdrawal(address, uint) external returns (uint, address, uint, uint, uint);\n    function withdrawApprovedStaking(uint) external returns (uint);\n}\n\ncontract SKlayLike {\n    function _owner() public returns (address);\n    function nextOwner(address) public;\n    function changeOwner() public;\n\n    function totalSupply() public view returns (uint);\n    function transferFrom(address, address, uint) public returns (bool);\n\n    function mint(address, uint) public;\n    function burn(address, uint) public;\n}\n\ncontract DelegationContract {\n    string public constant version = \"0723\";\n\n    event Deposit(address user, uint sklay);\n    event Withdraw(address user, uint sklay);\n\n    event Stake(address user, uint amount, uint sklay);\n    event Unstake(address user, uint amount, uint sklay, uint due, uint uid);\n\n    event SuccessClaim(address user, uint amount, uint uid);\n    event FailClaim(address user, uint amount, uint sklay, uint uid);\n\n    event UserStat(address user, uint deposit, uint pending, uint totalIn, uint totalOut);\n    event PoolStat(uint totalSupply, uint staking);\n\n    // --- Contracts & Auth ---\n    ProxyLike public Proxy;\n    SKlayLike public SKlay;\n    StoreContract public Store;\n\n    DelegationContract public newDelegation;\n\n    enum State { Ready, Running, Killed }\n    enum Action { Staking, Unstaking }\n    enum UnstakingState { Unknown, Transferred, Canceled }\n\n    State public state = State.Ready;\n\n    modifier notStarted {\n        require(state == State.Ready);\n        _;\n    }\n\n    modifier notPaused {\n        require(state == State.Running);\n        _;\n    }\n\n    constructor(address _proxy, address _sklay, address _store) public {\n\t\trequire(_proxy != address(0));\n\t\trequire(_sklay != address(0));\n\t\trequire(_store != address(0));\n\t\t\n        Proxy = ProxyLike(_proxy);\n        SKlay = SKlayLike(_sklay);\n        Store = StoreContract(_store);\n    }\n\n    modifier onlyProxy {\n        require(msg.sender == address(Proxy));\n        _;\n    }\n\n    modifier onlyNewDelegation {\n        require(msg.sender == address(newDelegation));\n        _;\n    }\n\n    function startDelegation(address _delegation, address _init) public notStarted onlyProxy {\n        state = State.Running;\n\n        if (_delegation != address(0)) {\n            require(_init == address(0));\n            DelegationContract(_delegation).migrateDelegation();\n        }\n\n        Store.changeOwner();\n        SKlay.changeOwner();\n\n        require(Proxy.Delegation() == address(this));\n        require(Store._owner() == address(this));\n        require(SKlay._owner() == address(this));\n\n        if (_init != address(0)) {\n            require(_delegation == address(0));\n            uint staking = Proxy.staking();\n            SKlay.mint(address(Store), staking);\n            _stake(Proxy.CnStaking(), _init, staking, staking);\n        }\n    }\n\n    function nextDelegation(address _delegation) public onlyProxy {\n        newDelegation = DelegationContract(_delegation);\n    }\n\n    function migrateDelegation() public notPaused onlyNewDelegation {\n        state = State.Killed;\n\n        Store.nextOwner(address(newDelegation));\n        SKlay.nextOwner(address(newDelegation));\n        Proxy.setDelegation(address(newDelegation));\n    }\n\n    function setProxy(address _proxy) public onlyProxy {\n        Proxy = ProxyLike(_proxy);\n    }\n\n    function execute(address _to, uint _value, bytes memory _data) public onlyProxy {\n        (bool result,) = _to.call.value(_value)(_data);\n        if (!result) {\n            revert();\n        }\n    }\n\n    // --- Math ---\n    function add(uint a, uint b) private pure returns (uint) {\n        require(a <= uint(-1) - b);\n        return a + b;\n    }\n    function sub(uint a, uint b) private pure returns (uint) {\n        require(a >= b);\n        return a - b;\n    }\n\n    function mul(uint a, uint b) private pure returns (uint) {\n        require(b == 0 || a <= uint(-1) / b);\n        return a * b;\n    }\n\n    function div(uint a, uint b) private pure returns (uint) {\n        require(b != 0);\n        return a / b;\n    }\n\n    function emitUserStat(address user) private {\n        uint deposit = Store.deposit(user);\n        uint pending = Store.pending(user);\n        uint totalIn = Store.totalIn(user);\n        uint totalOut = Store.totalOut(user);\n\n        emit UserStat(user, deposit, pending, totalIn, totalOut);\n    }\n\n    function emitPoolStat() private {\n        uint totalSupply = SKlay.totalSupply();\n        (uint reward,,,) = Proxy.getRewardStat();\n        uint staking = add(Proxy.staking(), reward);\n        staking = sub(staking, Store.totalPending());\n\n        emit PoolStat(totalSupply, staking);\n    }\n\n    // user --- (SKlay) ---> Store\n    function depositSKlay(uint sklay) public notPaused {\n        Proxy.stakeKlay();\n        require(SKlay.transferFrom(msg.sender, address(Store), sklay));\n\n        uint staking = sub(Proxy.staking(), Store.totalPending());\n        uint klay = div(mul(sklay, staking), SKlay.totalSupply());\n\n        _depositToken(msg.sender, sklay, klay);\n\n        emit Deposit(msg.sender, sklay);\n        emitUserStat(msg.sender);\n        emitPoolStat();\n    }\n\n    // Store --- (SKlay) ---> user\n    function withdrawSKlay(uint sklay) public notPaused {\n        Proxy.stakeKlay();\n        require(SKlay.transferFrom(address(Store), msg.sender, sklay));\n\n        uint staking = sub(Proxy.staking(), Store.totalPending());\n        uint klay = div(mul(sklay, staking), SKlay.totalSupply());\n\n        _withdrawToken(msg.sender, sklay, klay);\n\n        emit Withdraw(msg.sender, sklay);\n        emitUserStat(msg.sender);\n        emitPoolStat();\n    }\n\n    // Fallback: Klay   . (payable )\n    function() external { }\n\n    //  stake \n    // sender       \n    function stakeKlay(address to) public notPaused payable {\n        if (to == address(0)) {\n            to = msg.sender;\n        }\n\n        uint klay = msg.value;  //   value  \n        require(klay != 0);\n\n        Proxy.stakeKlay();\n        uint staking = sub(Proxy.staking(), Store.totalPending());\n\n        uint sklay = klay;  // default value\n\n        if (SKlay.totalSupply() != 0) {\n            sklay = div(mul(klay, SKlay.totalSupply()), staking);\n        }\n\n        Proxy.stakeKlay.value(klay)();\n        SKlay.mint(address(Store), sklay);\n\n        _stake(Proxy.CnStaking(), to, klay, sklay);\n\n        emit Stake(to, klay, sklay);\n        emitUserStat(to);\n        emitPoolStat();\n    }\n\n    //  Unstaking  (Klay )\n    //     \n    // sender        \n    function unstakeKlay(address to, uint klay) public notPaused {\n        require(klay != 0);\n\n        if (to == address(0)) {\n            to = msg.sender;\n        }\n\n        Proxy.stakeKlay();\n        uint staking = sub(Proxy.staking(), Store.totalPending());\n\n        uint limitSKlay = Store.deposit(msg.sender);\n\n        uint sklay = limitSKlay;  // default: maximum\n\n        if (klay != uint(-1)) {\n            sklay = div(mul(klay, SKlay.totalSupply()), staking);\n        }\n\n        require(sklay <= limitSKlay);\n\n        klay = div(mul(sklay, staking), SKlay.totalSupply());\n\n        require(klay != 0);\n\n        // sender  to  \n        (uint uid, , , uint due, ) = Proxy.submitApproveStakingWithdrawal(to, klay);\n\n        SKlay.burn(address(Store), sklay);\n\n        _unstake(Proxy.CnStaking(), msg.sender, klay, sklay, due, uid);\n\n        emit Unstake(msg.sender, klay, sklay, due, uid);\n        emitUserStat(msg.sender);\n        emitPoolStat();\n    }\n\n    //  Unstaking  (SKlay )\n    function unstakeKlayWithSKlay(address to, uint sklay) public notPaused {\n        require(sklay != 0);\n\n        if (to == address(0)) {\n            to = msg.sender;\n        }\n\n        Proxy.stakeKlay();\n        uint staking = sub(Proxy.staking(), Store.totalPending());\n\n        uint limitSKlay = Store.deposit(msg.sender);\n\n        if (sklay == uint(-1)) {\n            sklay = limitSKlay;\n        }\n\n        require(sklay <= limitSKlay);\n\n        uint klay = div(mul(sklay, staking), SKlay.totalSupply());\n\n        require(klay != 0);\n\n        (uint uid, , , uint due, ) = Proxy.submitApproveStakingWithdrawal(to, klay);\n\n        SKlay.burn(address(Store), sklay);\n\n        _unstake(Proxy.CnStaking(), msg.sender, klay, sklay, due, uid);\n\n        emit Unstake(msg.sender, klay, sklay, due, uid);\n        emitUserStat(msg.sender);\n        emitPoolStat();\n    }\n\n    function claimUnstakingKlay(uint uid) public notPaused {\n        UnstakingState result = UnstakingState(Proxy.withdrawApprovedStaking(uid));\n\n        (address user, uint klay, , ,) = Store.getUnstakingList(Proxy.CnStaking(), uid);\n\n        if (result == UnstakingState.Transferred) {\n            _successClaim(Proxy.CnStaking(), uid);\n\n            emit SuccessClaim(user, klay, uid);\n        }\n        else if (result == UnstakingState.Canceled) {\n            Proxy.stakeKlay();\n            uint staking = sub(Proxy.staking(), Store.totalPending());\n\n            uint sklay = klay;\n\n            if (SKlay.totalSupply() != 0) {\n                sklay = div(mul(klay, SKlay.totalSupply()), staking);\n            }\n\n            SKlay.mint(address(Store), sklay);\n\n            _failClaim(Proxy.CnStaking(), uid, sklay);\n\n            emit FailClaim(user, klay, sklay, uid);\n        }\n\n        emitUserStat(user);\n        emitPoolStat();\n    }\n\n    function refreshStaking() public notPaused {\n        Proxy.stakeKlay();\n        emitPoolStat();\n    }\n\n    function getUserStat(address user) public view returns (uint, uint, uint, uint) {\n        uint deposit = Store.deposit(user);\n        uint pending = Store.pending(user);\n        uint totalIn = Store.totalIn(user);\n        uint totalOut = Store.totalOut(user);\n\n        return (deposit, pending, totalIn, totalOut);\n    }\n\n    function getPoolStat() public view returns (uint, uint) {\n        uint totalSupply = SKlay.totalSupply();\n        (uint reward,,,) = Proxy.getRewardStat();\n        uint staking = add(Proxy.staking(), reward);\n        staking = sub(staking, Store.totalPending());\n\n        return (totalSupply, staking);\n    }\n\n    function getRewardStat() public view returns (uint reward, uint commission, uint commissionRate, uint commissionDecimal) {\n        (reward, commission, commissionRate, commissionDecimal) = Proxy.getRewardStat();\n    }\n\n    function getCnStakingAddress() public view returns (address){\n        return Proxy.CnStaking();\n    }\n\n    function _depositToken(address user, uint tokenAmount, uint amount) private {\n        Store.setDeposit(user, add(Store.deposit(user), tokenAmount));\n        Store.setSTotalIn(user, add(Store.sTotalIn(user), amount));\n    }\n\n    function _withdrawToken(address user, uint tokenAmount, uint amount) private {\n        Store.setDeposit(user, sub(Store.deposit(user), tokenAmount));\n        Store.setSTotalOut(user, add(Store.sTotalOut(user), amount));\n    }\n\n    function _stake(address cn, address user, uint amount, uint tokenAmount) private {\n        uint idx = Store.historyCount(user);\n        Store.setHistory(user, idx, uint(Action.Staking), cn, now, amount, uint(UnstakingState.Transferred), 0);\n\n        Store.setDeposit(user, add(Store.deposit(user), tokenAmount));\n        Store.setTotalIn(user, add(Store.totalIn(user), amount));\n\n        uint sidx = Store.subHistoryCount(cn, user);\n        Store.setSubHistory(cn, user, sidx, uint(Action.Staking), now, amount, uint(UnstakingState.Transferred), 0);\n\n        Store.setHistoryCount(user, idx + 1);\n        Store.setSubHistoryCount(cn, user, sidx + 1);\n    }\n\n    function _unstake(address cn, address user, uint amount, uint tokenAmount, uint due, uint uid) private {\n        uint idx = Store.historyCount(user);\n        Store.setHistory(user, idx, uint(Action.Unstaking), cn, now, amount, uint(UnstakingState.Unknown), due);\n        Store.setUnstakingMap(cn, uid, user, idx);\n\n        Store.setDeposit(user, sub(Store.deposit(user), tokenAmount));\n        Store.setTotalOut(user, add(Store.totalOut(user), amount));\n\n        Store.setPending(user, add(Store.pending(user), amount));\n        Store.setTotalPending(add(Store.totalPending(), amount));\n\n        uint sidx = Store.subHistoryCount(cn, user);\n        Store.setSubHistory(cn, user, sidx, uint(Action.Unstaking), now, amount, uint(UnstakingState.Unknown), due);\n\n        Store.setLastUid(cn, uid);\n        Store.setUnstakingList(cn, uid, user, amount, due, uint(UnstakingState.Unknown), sidx);\n\n        Store.setHistoryCount(user, idx + 1);\n        Store.setSubHistoryCount(cn, user, sidx + 1);\n    }\n\n    function _successClaim(address cn, uint uid) private {\n        (address ruser, uint ridx) = Store.getUnstakingMap(cn, uid);\n        Store.setHistoryState(ruser, ridx, uint(UnstakingState.Transferred));\n\n        (address uuser, uint amount, , , uint uidx) = Store.getUnstakingList(cn, uid);\n\n        Store.setPending(uuser, sub(Store.pending(uuser), amount));\n        Store.setTotalPending(sub(Store.totalPending(), amount));\n\n        Store.setUnstakingListState(cn, uid, uint(UnstakingState.Transferred));\n        Store.setSubHistoryState(cn, uuser, uidx, uint(UnstakingState.Transferred));\n    }\n\n    function _failClaim(address cn, uint uid, uint tokenAmount) private {\n        (address ruser, uint ridx) = Store.getUnstakingMap(cn, uid);\n        Store.setHistoryState(ruser, ridx, uint(UnstakingState.Canceled));\n\n        (address uuser, uint amount, , , uint uidx) = Store.getUnstakingList(cn, uid);\n\n        Store.setDeposit(uuser, add(Store.deposit(uuser), tokenAmount));\n        Store.setTotalOut(uuser, sub(Store.totalOut(uuser), amount));\n\n        Store.setPending(uuser, sub(Store.pending(uuser), amount));\n        Store.setTotalPending(sub(Store.totalPending(), amount));\n\n        Store.setUnstakingListState(cn, uid, uint(UnstakingState.Canceled));\n        Store.setSubHistoryState(cn, uuser, uidx, uint(UnstakingState.Canceled));\n    }\n}\n",
  "sourcePath": "/Users/jeongho/workspace/klip/klaystation-contract/contracts/DelegationContract.sol",
  "compiler": {
    "name": "solc",
    "version": "0.4.24+commit.e67f0147.Emscripten.clang"
  },
  "schemaVersion": "3.0.11",
  "updatedAt": "2021-04-28T12:11:02.622Z",
  "devdoc": {
    "methods": {}
  },
  "userdoc": {
    "methods": {}
  }
}